[
    {
        "descr": "correct transaction",
        "success": true,
        "fuzzer": true,
        "request": {
            "method": "eth_getTransactionByHash",
            "params": [
                "0x3ddc5012709aa350f4d27aad023410605087aa3dea92a7308c164584a92a5199"
            ]
        },
        "response": [
            {
                "result": {
                    "blockHash": "0x389eef428d248d31ad0f9cfcb6dec01417ea4779a9241bd55e14bfc7cb83a4e9",
                    "blockNumber": "0x6920ca",
                    "chainId": "0x1",
                    "condition": null,
                    "creates": null,
                    "from": "0xc33ffac8030c7c50d8994015c88d502a3240dec7",
                    "gas": "0x30d40",
                    "gasPrice": "0xee6b2800",
                    "hash": "0x3ddc5012709aa350f4d27aad023410605087aa3dea92a7308c164584a92a5199",
                    "input": "0x1019635d000000000000000000000000778f68923f1f2a40117b3db98083851c5d2e37ef000000000000000000000000000000000000000000000000000000000000000200000000000000000000000000000000000000000000000821ab0d4414980000",
                    "nonce": "0x40d1",
                    "publicKey": "0x3dbf0a3e43e65ecc8a7627b354654ce280788332f0d8b382b0578df3ba41b4b9992b0cf38a5670782c6623de8ec96fd27cfdceda9e661670c5b37ae5d0ef7f78",
                    "r": "0x22d47e325a8755f444e73db8d24f58269148b3e0ecf7868651490e75a4f96c64",
                    "raw": "0xf8cb8240d184ee6b280083030d4094752ff65b884b9c260d212c804e0b7aceea01247380b8641019635d000000000000000000000000778f68923f1f2a40117b3db98083851c5d2e37ef000000000000000000000000000000000000000000000000000000000000000200000000000000000000000000000000000000000000000821ab0d441498000025a022d47e325a8755f444e73db8d24f58269148b3e0ecf7868651490e75a4f96c64a0166e6eb1cea44f4b68345e026de87f0959807ddad59fb5dde94e35580732c426",
                    "s": "0x166e6eb1cea44f4b68345e026de87f0959807ddad59fb5dde94e35580732c426",
                    "standardV": "0x0",
                    "to": "0x752ff65b884b9c260d212c804e0b7aceea012473",
                    "transactionIndex": "0xab",
                    "v": "0x25",
                    "value": "0x0"
                },
                "id": 77,
                "in3": {
                    "proof": {
                        "type": "transactionProof",
                        "block": "0xf90214a041866d5c9892e11272ef4566268c66cea269841dded94126048c9d9decbe409da01dcc4de8dec75d7aab85b567b6ccd41ad312451b948a7413f0a142fd40d49347945a0b54d5dc17e0aadc383d2db43b0a0d3e029c4ca01ec938e4d64afff0ce8d1549a1c85629b83afaafc27ebd3d30fa1193a9e98913a0b5a0213d8326ba5c7f8db1848bb0e47c56a6ea53f083b642ee1479ab4385dc15a0959f9a01ebc25c9a9fe768a08ebf5932fd58fae6212dcefc2c0cd26984840f13b901000b08a021a0626134880110710014c01061058f270b04b20d408704b05104346006c3220402042b539a0a025053d9037b020647200c021579cce1f1982028002105082a91a2900203045a425d450160a1e6003a15a8591009961eca38401b401105122050363a5117d646022404401c045613345e38589602045808194a900b00124128b0ca80a108240c1542c234398904410d80448044154827e31627111a700244c8010004241a098c7a03c900cc182d027070101b8a008044484cb0904d0358a0078a6c004000208a3085048242405018c634c3c9486202052a2e846ae24a219534be80020a101410001281009b310e4020e09a5a965d00980100ca9801568707d7aee045b35c836920ca837a121d8379cf6b845c14a29693737061726b706f6f6c2d6574682d636e2d687aa0705e05a808b3449d0d56c89e5037d341a31e4b8ba61d99f860bdf9c00632c771881105346000654ee4",
                        "merkleProof": [
                            "0xf90131a00b5b68a13ba7a0908a0e6ec35cea8909c7db9c38ec528f294bacc3e9a921e385a012c0e9215e6c8d70b6bb208bf0f045b07f1e1cf1281c2ed76bfa066bdd57356da0f259bcff22c9214bc892c278b7ddb06c542566baef3589ea201869b98dac40b1a031a3004b28320b5b34942c7fa6b4597ff5493312c9d6cb0eaf958ea9681bea17a0505ebb316da2276173a9cc0867fe8e8519df054ddf76a9a3e28ea6ef4e3fb4eea0e580081265fadc4f0ee996114b84597622ba2c6d50fa760dbf6c261e46f080b2a0563477696629da0eecec37aa4f236504091d329ceb9f1b28423906f2988f1d09a07bba91c783998dabe533dd7b362ea6498553b006ce3de4ac617021bb073e024aa070e79a6d783756d400b712d5667882c6df9188635d4204608d5cfecdbfc42e678080808080808080",
                            "0xf851a0703c0db3ea8287db7df5a27605c2d59956f3145523d3a15a78a95e128a8c7b7ba079c73b74fc965bd02631d68b94a56fd72572073687f1bb1e6de22f7380e34807808080808080808080808080808080",
                            "0xf8918080808080808080a04f5304e8278706585d11aee5d3ab51d482d07926b02449bfb9e97022f81a2939a0176904a2357ee15f0adfde00901bde8d03ea82a2251f925fecffe4d9812b3586a0d6e33550d00187f99dfeb8ba2a43fd21e1c2e90fc50407c9d4ffd8673ad18d53a0b7c9193589b232a43905549a082a19a49c1723f9b86abfa0154030140ae6eba68080808080",
                            "0xf90211a057fc7c876033aab3442e0acca396c9944e44fe0755225a9b5cab0fd7a77d70eda0b337383244c54f931fa568e074f7cfc7411a43440f0b6a7a7757b0d7e10faec2a0fe6771a834c8b101ff9ce13a6612ebbc5d0ecf99e9f8e29a6943abdf0dc90a62a0e7c1421881721538266c674b867a6de65885bed9294909340470a1380d6aa342a0f7f9420188a1bae035a7dc7ac48cb24328b8d7dbb40b767203a62c8b70080a26a04914509a44df4d2e309d2bea5e8a8c55a181d9b83641da10a017278f8a6b20eda01e89da6f55bc4476d63d7c06bad3683b1fd9f1fa1171503e923fb3cee528cffca04193f8fe37b71e95a26166eec32dbdc7e4a4e2eff36075f399b45e85d2e59dbda084a5d304743c2df00ad0b2abc0ac5db5799ae975ce77f8218edc3cccd3ba8f81a07d2b2f5445abbdc75995131f1c7d6145e793d444fda0a0c32c07eedcdf76723ea01f5b9402d08502641db2dc178944851ec5c210d8d29fc788a71271e85474f601a05139439b110cb8c6d793d72a6baf585dbba369fa17ef20d353bf842ce3fd25bca0dd5fb26ff4164a7f269a13d15e53202100244adf9fbe85ed0663190ed423639ea0dbbaa1fb7c0aac03fa7dd2665e6fa72b44e2b773c399a5430ef92a81c8d6b0d8a0db6a88971b04a7087ee3fa978e447c558792b09ddb7506891c9ffde5b4f34c18a0f2ea1647dfd4072db93cac0c61cbb0feea07f3f30d8a5d54ae25d1c66021781180",
                            "0xf8d020b8cdf8cb8240d184ee6b280083030d4094752ff65b884b9c260d212c804e0b7aceea01247380b8641019635d000000000000000000000000778f68923f1f2a40117b3db98083851c5d2e37ef000000000000000000000000000000000000000000000000000000000000000200000000000000000000000000000000000000000000000821ab0d441498000025a022d47e325a8755f444e73db8d24f58269148b3e0ecf7868651490e75a4f96c64a0166e6eb1cea44f4b68345e026de87f0959807ddad59fb5dde94e35580732c426"
                        ],
                        "txIndex": 171,
                        "signatures": []
                    }
                }
            }
        ]
    },
    {
        "descr": "Transaction to address without leading zeros",
        "success": true,
        "fuzzer": true,
        "request": {
            "method": "eth_getTransactionByHash",
            "params": [
                "0x22eaae64bb0f92291feea32b69d3e9dd025ef3009a3f97a6d365b2cf31eb3647"
            ]
        },
        "response": [
            {
                "result": {
                    "blockHash": "0xd54feec471df0c88ff99425b8ce10aeda90c255081e00331a0dcd2d573ae1c0a",
                    "blockNumber": "0x6cc5f0",
                    "chainId": "0x1",
                    "condition": null,
                    "creates": null,
                    "from": "0x6b50911190cffd34b50d575706639c24aafdc625",
                    "gas": "0x15f90",
                    "gasPrice": "0x5f5e1000",
                    "hash": "0x22eaae64bb0f92291feea32b69d3e9dd025ef3009a3f97a6d365b2cf31eb3647",
                    "input": "0x",
                    "nonce": "0xc4b6",
                    "publicKey": "0xc06503a3bd9543c8225c4056048f691b1196486c0cc3a4c44cea8eaf64c55456a1712176f4a9b6304b04a4035134b410b4fada31931132555d6eda8813613aee",
                    "r": "0x23043e4c889b23832d4b7dc4e4d04d13a2e766fff2868fec99909a59e50c3226",
                    "raw": "0xf86d82c4b6845f5e100083015f90940000000000000000000000000000000000000003873c2f4ca146d2f18026a023043e4c889b23832d4b7dc4e4d04d13a2e766fff2868fec99909a59e50c3226a01ff4f8093c86ebba80219e3643c335705925ccfd76529d7244ad1fb3a02021b0",
                    "s": "0x1ff4f8093c86ebba80219e3643c335705925ccfd76529d7244ad1fb3a02021b0",
                    "standardV": "0x1",
                    "to": "0x3",
                    "transactionIndex": "0x58",
                    "v": "0x26",
                    "value": "0x3c2f4ca146d2f1"
                },
                "id": 1,
                "in3": {
                    "proof": {
                        "type": "transactionProof",
                        "block": "0xf9020fa0dd9783e29e09a4b8c34cad15ef443054d87a31186fcb9b3e4f89b51db484ed72a01dcc4de8dec75d7aab85b567b6ccd41ad312451b948a7413f0a142fd40d4934794ea674fdde714fd979de3edf0f56aa9716b898ec8a006c626e145f92ca7694cbc2a82006d015a49d330111bcd4a444c163d38399016a0cd3c014f8334bb83bfa3bf7fa8590f566e1febb661efa9c5580ec579e39bd3c3a0ae6a39ec7acc8c98475d37448a22538d8f5507ad13258a9569f9e658ec264cf8b901000522014000020100040b00024442204200200028002000048010100c001000020c0010000800c00000a0a040020000006a0c200005a240000900240400440100088024802021820202004048411008041240000400a501400000000c202044040044002003214088000008e409002c000180808809006840a680041402402848a20013040000800400400906006004000801204004000008000c400008004100431084101010101404400280080200000260000040000422082000c9c00004024000000210080c010008000612008000800008002087000020241300800171110850600040000000000400040820001842440701800100100450404002c001848709a4df226c057a836cc5f0837a121d837949ed845c4c331a8e65746865726d696e652d65753130a0f7a2df71d156d04413252514e751c60c212b7259e414d049ea0f774c799efb6f889eab32eb11939bc2",
                        "merkleProof": [
                            "0xf8f1a028a4ec13c3a880c74d222c3e6d5ae2285fe3ae9c3c97c087ea305f6e701a6a3ba03868b1a6d1c4c87fe631f7963ca81816ad8a54efa48ae32d946534a864408beea092bb7b475df876d830f987bc4e97ecb46f31c4c20a1e580d15c4599a573c0b1ba0f004509643ed85cd39aced753976546d6e7f7996a55827c515f3be7b40548295a021ec814c3a5b425a1636cf5eb698e14d7989689723d71ac8101457587c52e4caa082edf488ad6d8cc3de4c13a338a49e56c3820ecaada0f2904e3cf7556ea48ba88080a09ce551112f2e74eb29e229b0f52f54f92b4eefcc7dd15c936abff27f3d34fb118080808080808080",
                            "0xf901b1a069c88f2fbc2ccc73a1bd3d0337dbc10821c1128bb34f4f410276ba65c17b63cea04fbd9393723ccfae31e3277dc406d18626df6392195996c5a4a9d523760ccf6aa0e1e6c4a0ca660180a66d79665d952c7ebbfee159fd79a7f770bf1efcfeed6248a08a522b10a155c250f6b2954a8ec5cf308965cbc05aa61871cfa8f7dba1f94aeda02d71eafdf994c95587f00eeb7dd7428433c928d8d4da917137c89edd09cdd8e0a089baab08c203e54ec7a2205adc63d8311e33014f937414989f2155c956f32e53a0cd1d4b1ac2a8729622d0307ceed3aa92a61217196a4e80a213baaee23e86094ca0d71fc9953a631ae382c65b4bb0b41d485be3cb54a8c70fc86cc60603ccfb8dbfa091bf04b995aa319788ac327c067f11dc8ab7586f3448a27a6552f29ed834245ea0b18cdd717d8d46bbde27a425f2e04a422497f81e3dd03184a286b1652088fcd9a04e78de387644f2f3f53fe302c92fa3e6eee3b522f7168f6d2cdb886f2b210da9a01e5d894e5ea6d8980e10f47dc0a83ddf0e911c04d8d614564faaf4aa5e0fbbeaa05346e6b0dac14e4ae42407ed335dffc30a65ad19feac756f7312878cb7b4018480808080",
                            "0xf87220b86ff86d82c4b6845f5e100083015f90940000000000000000000000000000000000000003873c2f4ca146d2f18026a023043e4c889b23832d4b7dc4e4d04d13a2e766fff2868fec99909a59e50c3226a01ff4f8093c86ebba80219e3643c335705925ccfd76529d7244ad1fb3a02021b0"
                        ],
                        "txIndex": 88,
                        "signatures": []
                    },
                    "currentBlock": 7635856,
                    "lastValidatorChange": 0,
                    "lastNodeList": 6619795,
                    "execTime": 557,
                    "rpcTime": 375,
                    "rpcCount": 2
                }
            }
        ]
    },
    {
        "descr": "With signatures",
        "success": true,
        "fuzzer": false,
        "signatures": [
            "0x45d45e6ff99e6c34a235d263965910298985fcfe",
            "0x1fe2e9bf29aa1938859af64c413361227d04059a",
            "0x945f75c0408c0026a3cd204d36f5e47745182fd4",
            "0xc513a534de5a9d3f413152c41b09bd8116237fc8",
            "0xbcdf4e3e90cc7288b578329efd7bcc90655148d2"
        ],
        "request": {
            "method": "eth_getTransactionByHash",
            "params":[
                "0xe7dcb6151a8b9ab70390c2cb97d2983f2d82db843b497920874bab0a2ae62d0a"
            ],
            "in3": {
                "verification": "proof",
                "version": "2.1.0",
                "signers": [
                    "0x45d45e6ff99e6c34a235d263965910298985fcfe",
                    "0x1fe2e9bf29aa1938859af64c413361227d04059a",
                    "0x945f75c0408c0026a3cd204d36f5e47745182fd4",
                    "0xc513a534de5a9d3f413152c41b09bd8116237fc8",
                    "0xbcdf4e3e90cc7288b578329efd7bcc90655148d2"
                ]
            }
        },
        "response": [
            {
                "result": {
                    "blockHash": "0xfe0e95409881b99978eeecec27760140eb75cc3e7a1f746c00d0cca05c3bb303",
                    "blockNumber": "0x8b5a68",
                    "chainId": "0x1",
                    "condition": null,
                    "creates": null,
                    "from": "0x007b8eb47956bc6e92f35647132280382d897c46",
                    "gas": "0x5208",
                    "gasPrice": "0x98bca5a00",
                    "hash": "0xe7dcb6151a8b9ab70390c2cb97d2983f2d82db843b497920874bab0a2ae62d0a",
                    "input": "0x",
                    "nonce": "0xba9",
                    "publicKey": "0x3d6b8bf4cf3d274a1e17fbf36fdd1f2ccfb916dc81394b80fa9d728647d459a4880a4304dd24a42640192695125729d6860ead04422482c666ecd8e4c43d8d93",
                    "r": "0x490e05a8042ea8d22002a1438dde9902bc5c1850c5a07b0f7cd7ba4947fea3ca",
                    "raw": "0xf86f820ba985098bca5a008252089488d34944cf554e9cccf4a24292d891f620e9c94f89041b5e8788087130008025a0490e05a8042ea8d22002a1438dde9902bc5c1850c5a07b0f7cd7ba4947fea3caa0107c23413f63731593b7318edef254d7a1c22196109dd91d4eb9199fc1488186",
                    "s": "0x107c23413f63731593b7318edef254d7a1c22196109dd91d4eb9199fc1488186",
                    "standardV": "0x0",
                    "to": "0x88d34944cf554e9cccf4a24292d891f620e9c94f",
                    "transactionIndex": "0x0",
                    "v": "0x25",
                    "value": "0x41b5e878808713000"
                },
                "id": 1,
                "in3": {
                    "proof": {
                        "type": "transactionProof",
                        "block": "0xf90212a0e7004b70010f6be8f44842414868fd6f190a9327626e07b42569479120f243b6a01dcc4de8dec75d7aab85b567b6ccd41ad312451b948a7413f0a142fd40d493479452bc44d5378309ee2abf1539bf71de1b7d7be3b5a039b0188c2920e72f88cf4e4e3b32712bdcf390b453690d1661905a63cec7d134a0f4fb76cf21fae0727ff928af0459c6c56dee839aac8209ae1e62edf8594b2f8ba05f99860093bc895c257797fc859bd2d689aacc94755850d95abfc9c3e7542704b901000000000000010000000000800000002000000300000002200020010000000000000010054000000080001102000041000010000000020000000000800000000a0040000000000000000000080000000000020000420810400440c0000000001010008004020000040002430000000a002000004000040410000000120000000000400002314100000010000428000405000000008000001000001000080000000000028000000008000000004400000210000000800004100300000000000000000000420000000000000004000000000000020000000412002000000000200000000000100800000020000020000000080181008002000020000200080000008709321b195087ba838b5a6883984a4b830bae44845dfbf6009150505945206e616e6f706f6f6c2e6f7267a0f211160e074d03f1881a40bd873142fc3a33ec0a20f838142f64c8e44cd4709d88a801a8bb45874c67",
                        "merkleProof": ["0xf851a0d9362381ca3bbb9339d797adbbcf38cdf82e7520c25d917171441709e2042f5b80808080808080a065d35a91e182070c5fdc8f7f75fd41bef2bdb8871669bc758255d2c0ea2b42728080808080808080", "0xf87430b871f86f820ba985098bca5a008252089488d34944cf554e9cccf4a24292d891f620e9c94f89041b5e8788087130008025a0490e05a8042ea8d22002a1438dde9902bc5c1850c5a07b0f7cd7ba4947fea3caa0107c23413f63731593b7318edef254d7a1c22196109dd91d4eb9199fc1488186"],
                        "txIndex": 0,
                        "signatures": [{
                            "blockHash": "0xfe0e95409881b99978eeecec27760140eb75cc3e7a1f746c00d0cca05c3bb303",
                            "block": 9132648,
                            "r": "0x6db6312b026fe220a7e630af6b6a3395a8101c6defabc50e3002bc565a705987",
                            "s": "0x523a89f81f9a041320074814b9a53c666b5298bb4256021c9c599b8cf1657ccf",
                            "v": 28,
                            "msgHash": "0xca46a7fe21b0a08c68e0604dff3ca1eb82fb1e7bec1a83d2a999b59b2e8ec19a"
                        }, {
                            "blockHash": "0xfe0e95409881b99978eeecec27760140eb75cc3e7a1f746c00d0cca05c3bb303",
                            "block": 9132648,
                            "r": "0xe139c16b4340702840d3f668ac105f5819a31b5106ee763faaeda137e770ef4c",
                            "s": "0x233bd9ae05ba1e465f03a087bfdffedf8e1d87b2ad5be0b85065a004bd575179",
                            "v": 27,
                            "msgHash": "0xca46a7fe21b0a08c68e0604dff3ca1eb82fb1e7bec1a83d2a999b59b2e8ec19a"
                        }, {
                            "blockHash": "0xfe0e95409881b99978eeecec27760140eb75cc3e7a1f746c00d0cca05c3bb303",
                            "block": 9132648,
                            "r": "0x87650008405edf1b8cec99061c391a01a14d83e515c13639f49c71f48958e8be",
                            "s": "0x78c4d47ec4b1b8d80f26d363bf13bf6bfb170d56c107a27707db7714362264de",
                            "v": 28,
                            "msgHash": "0xca46a7fe21b0a08c68e0604dff3ca1eb82fb1e7bec1a83d2a999b59b2e8ec19a"
                        }, {
                            "blockHash": "0xfe0e95409881b99978eeecec27760140eb75cc3e7a1f746c00d0cca05c3bb303",
                            "block": 9132648,
                            "r": "0xc416370b49252f35ae8810532ba9e7b938b1086a66020cf17751e5487ea14b4a",
                            "s": "0x39c7517512184bd6c09098a923971b7265d59d6c26664198d25533ce7fb93899",
                            "v": 28,
                            "msgHash": "0xca46a7fe21b0a08c68e0604dff3ca1eb82fb1e7bec1a83d2a999b59b2e8ec19a"
                        }, {
                            "blockHash": "0xfe0e95409881b99978eeecec27760140eb75cc3e7a1f746c00d0cca05c3bb303",
                            "block": 9132648,
                            "r": "0x615b5ee9d3667d6398e335cb8b3262009e7ffc427dfda4ba941a9a77478dba8f",
                            "s": "0x67a745ecf9dfe04003de0b702075f9d27b0ba49e1e4795dd27200eafaaf9c97a",
                            "v": 28,
                            "msgHash": "0xca46a7fe21b0a08c68e0604dff3ca1eb82fb1e7bec1a83d2a999b59b2e8ec19a"
                        }]
                    },
                    "version": "2.1.0",
                    "currentBlock": 9222473,
                    "lastValidatorChange": 0,
                    "lastNodeList": 9187903,
                    "execTime": 462,
                    "rpcTime": 263,
                    "rpcCount": 2
                }
            }
        ]
    }
]