[
  {
    "descr": "in3_whitelist",
    "chainId": "0x5",
    "fuzzer": true,
    "verification": "proof",
    "id": 2,
    "request": {
      "method": "in3_whiteList",
      "params": [
        "0x08e97ef0a92EB502a1D7574913E2a6636BeC557b"
      ]
    },
    "response": [
      {
        "id": 2,
        "result": {
          "totalServers": 2,
          "contract": "0x08e97ef0a92EB502a1D7574913E2a6636BeC557b",
          "lastBlockNumber": 1546354,
          "nodes": [
            "0x1fe2e9bf29aa1938859af64c413361227d04059a",
            "0x45d45e6ff99e6c34a235d263965910298985fcfe"
          ]
        },
        "jsonrpc": "2.0",
        "in3": {
          "execTime": 0,
          "lastValidatorChange": 0,
          "proof": {
            "type": "accountProof",
            "block": "0xf90259a03d6aae19e1c6faa4cea9a730275ac704ed664f9c055878c6c8995f59a101ea26a01dcc4de8dec75d7aab85b567b6ccd41ad312451b948a7413f0a142fd40d49347940000000000000000000000000000000000000000a0f1c3c3913912671e9607b20c80869cc995499123ffec4921159a380c7c180f65a056e81f171bcc55a6ff8345e692c0f86e5b48e01b996cadc001622fb5e363b421a056e81f171bcc55a6ff8345e692c0f86e5b48e01b996cadc001622fb5e363b421b901000000000000000000000000000000000000000000000000000000000000000000000000000000000000000000000000000000000000000000000000000000000000000000000000000000000000000000000000000000000000000000000000000000000000000000000000000000000000000000000000000000000000000000000000000000000000000000000000000000000000000000000000000000000000000000000000000000000000000000000000000000000000000000000000000000000000000000000000000000000000000000000000000000000000000000000000000000000000000000000000000000000000000000000000000000000002831ace61837a120080845de6427ab861506172697479205465636820417574686f7269747900000000000000000000005b37927870eb577dbf12241438de304bf1a5139c7c4d23a0c3b7e35a258bd3d572198f7470ab476e7541d302847c56286bebbf06193596b81aebc31ba1dca54f00a00000000000000000000000000000000000000000000000000000000000000000880000000000000000",
            "accounts": {
              "0x08e97ef0a92EB502a1D7574913E2a6636BeC557b": {
                "accountProof": [
                  "0xf90211a0c9b63bc28f2c29fc7bb148b18a11f0e5bb2fa0c0525323e75aae0a282d0b7b42a0bf2abf26587d76e0ee5bcfceedecb3ac92b655036fbd3e177559ed36049ce2d2a0e449164fa1be4c9ab7c513f721cd4a6257d7b108b12c3c13a8c4ea5efe6742bea0fe92a9b2d91b96ba977250e8e8cdeb233a7443abb49ba81506963d8dbf7fdf44a001ff6e079e533e20d6436a8367536811fc53759ae5eb8f440755f592a17dd60aa0c98738c801f9dc21c2abbc47840dad291ee751528f76148a97156c57b775c129a0ccb0e8afc62d3a1b2e04566c0ad6f383ffcb664c7160e25f1110784ddd39d575a0349e3ba1740002b48441a75b48b0183be90754b1e0a98dff5ff45d756c185386a0d963d2661e416b806e62eae91097991aed5738196f829d355f508f31bc72a494a06577fc28e185495ccc308fa5ae524fc4c5348c6318acb155541c973ae73122c6a081c65ef6385de7c5b490c21c12fe9f7fe587211f22910f928f003ba76cacb453a07b063ba0c376edcf52c39d3675ae88fc927da5d62cb3036118220c58f2ff85aea07e8c415db2ca2a2841e752951c7e213421c24ef6ae7849572830b9e1174b8271a02e2cb6395b0ca2bb9017b47a28ace3d7006192a5f05b1abd4a0ee78f151e0323a0146fcbef455001d94196e49db3b072e41ac132f02e1fb36a024fd9ec9318a7cda070b53e6cbb1e8b7581321940849e41fde5e428b5eb568a56177e82a0f5c80f5880",
                  "0xf90211a0e861c703de8551983f8e5dd1430fad14b44e95293cbccee30507c2d62657a1e1a0fa6a76e76e3e8cf2e02357721edba7177246ba798ceb5eb56586d3881f9e120fa0e7b0213392a1680d1138ca74708b6c6b0e7f93ca5a2b452a1d0ef939b999772fa032f1ea17697c2763466dffefdd376fb11cd6460c8fff9f467df567e18d47b36da0a8754b9df93fbfbd91e49eb896186236fd4ed4c161f9b5b9a6a3408b94ab00caa05f23900b6cb802f026f26b4426269c208d1d132347c9884635d072b2cc809b3ba03ce69b3b40e669f02479becd57b0641a77002127da7020240c6c78450961f47ea039b92682cc1ae04651b91675080e5a3b72bdb0884b53d402622e013933eff7e1a04593e988b3619ac54ac96adb11b18db4d7edec24dd90bf1d7c0be0ce49612aa0a0a17525b54247f1577575b435a7524436b5c8f8d11cdc3c1854454208cc94ff6ba0d62fab11dfc5ee1b4c61dcd54d1c16254e4eedd6f16c30decd6653f337d5a3b8a0147500fe4bf48d74b8cf3a62a4b2a1d9c0f05f829086be356a0861804cec9b69a0eec948bfc6b8b4858dba9da7d5a8a8ac47c0f5b6af4e7fe4fbb9ec2c075f4117a0cd2ba98a6569730b5978b4eefb0bb359c17303ab1eb7ea2212333372857a53d8a0e76a1f232a106aa87af30a7944c8a6564b9566e7a57cd08b1971eb93297c3bb5a012a94e3ecfa106a0f9b54ff7961ad92878294515deafe6237271a67bef42c19f80",
                  "0xf90211a0432a3bf286f659650359ae590aa340ce2a2a0d1f60fae509ea9d6a8b90215bfea06b2ab1984e6e8d80eac8d394771a31388f9f33e1548f7d284adeb5af98537ccea0529861b2110d23074ad1a4d2e1b8cf9dd2671a5021fc42c24fd29bac1bd198b6a0a5bd62a06b7e9031484c4bd79cea2b7320383ae529e6b9a60ad31b6519496160a0652dcb78e9f4648f4aaad9584cf1c1defe6ea037822176763bc37aa72e668233a0e17a15e15e1343d59a71d9c09bd0cb24e259682cf589de8345934ff9b99215b1a0db3526176733662f929d9a1a61c5eca162d72628746a28090a7dcc29f43fe8a2a035238045d5857a76bf0d0276392bbbd5295cebc54f1fad089626f4390d37c2c1a0848f9e1442280f0442980561db8da240a44e7901907e705fa2f80055dd0c9853a0b152eb66b44bfa0270440f993c7edfe84138c9ab464b69070597617ca3c6db6da0eebfd2f02ceaf3180bd07b1441c1e1328809fb126abd35ca1123c7486b1425b0a017649e12d7ff8a3b3432fde2e32bfbc0edd07d56e05eb936816de551b68181e2a0b6729e31ead8c83a9cb0afbea13146af7342aee04b2008b1add69a1cf185afa0a098d60c0423124c97e538fa35486b6a2db5b4724c6e509a9eaca3052d5193b00da037608bd23502a342aa32da9472974d03143137788c77c43bf17d5277c3d789b2a03978cc82b6f723c26020111c1f06dad88d2cd973c04c56724d2c284833d155b480",
                  "0xf8b1a047443a53d86b0659ee4f46e54e47a3e9370b8f8a5b9a6f77aa218226f5686500808080a0de5d6d0bab81e7a0dcc4cfec42503384d17fefff05ba8b6082de08417044aa2b808080a07044d7c1323585aa14ea75c4cfef82b6b3320fa341627b142a9edf7eba6ea42da0223ee97601935bd3d1610a6cbe653d6b7870c1dff46e0b5db3bfdc1d9a53644580a0f7824a944cb1a64517347f54bc73cd5fc9ebd90eecca95e0a68f79d81cc4318a8080808080",
                  "0xf85180808080808080a04a33f489c2179321cdb3c1d0c1db441d883e5a615cdec73f95acb8e3c91afe9f80808080808080a0ec5d4cd2b11aaba34c5569cdae245baccd49b7f503a4e4223130d453c00b2e0080",
                  "0xf8679e39ce2fd3705a1089a91865fc977c0a778d01f4f3ba9a0fd6378abecef87ab846f8440180a0f5e650b7122ddd254ecc84d87c04ea99117f12badec917985f5f3335b355cb5ea0640aaa823fe1752d44d83bcfd0081ec6a1dc72bb82223940a621b0ea251b52c4"
                ],
                "address": "0x08e97ef0a92eb502a1d7574913e2a6636bec557b",
                "balance": "0x0",
                "codeHash": "0x640aaa823fe1752d44d83bcfd0081ec6a1dc72bb82223940a621b0ea251b52c4",
                "nonce": "0x1",
                "storageHash": "0xf5e650b7122ddd254ecc84d87c04ea99117f12badec917985f5f3335b355cb5e",
                "storageProof": [
                  {
                    "key": "0x0",
                    "proof": [
                      "0xf90111a05541df1966b288bce9c5b6f93d564e736f3f984cb3aa4b067ba88e4398bdc86da06483c09a5b5f8f4206d30706bc9d537e01077fcc583bafea8b0f1987a6e78084a04a245b8b7c143b14a7cb72e436df03e1d029f619a2e986108c4ffdb23565b2cb80a0f2800672a0b38a211231189e7ff7c5d466359c3f7195be1601e0ec2dc1cd5f9e8080a0e38ca3fed40d881e90e889d18e237320604485c7260840b108b03b2309088befa0a3167f2a5984b53340a550067602e9d0fc103f83b1b39108cc0c090d879e2c498080a0435071d8aee5a2d7b7fd0de53bfefc129eef08150882fd4f212b4e664920950980a0c7c0421f87cacaa5c81c39cbd7be150c52780feb2c92a62dc62b25dd6dddcdc4808080",
                      "0xf851808080808080808080a02b2bb6a045f22c77b07ecf8b1f7655f7ed4ccb826b16681ccf1965d4b72ad6df8080808080a076424cf5a443e7be91436a36c4d1593c5fe7736fe29acb66bbe8be0ccc7ae78280",
                      "0xf843a0200decd9548b62a8d60345a988386fc84ba6bc95484008f6362f93160ef3e563a1a06aa7bbfbb1778efa33da1ba032cc3a79b9ef57b428441b4de4f1c38c3f258874"
                    ],
                    "value": "0x6aa7bbfbb1778efa33da1ba032cc3a79b9ef57b428441b4de4f1c38c3f258874"
                  }
                ]
              }
            }
          },
          "lastWhiteList": 1546354
        }
      }
    ]
  },
  {
    "descr": "WhiteList request for get eth_getBlockByNumber",
    "chainId": "0x5",
    "whiteListContract": "0x08e97ef0a92EB502a1D7574913E2a6636BeC557b",
    "debugNodeSelection": true,
    "proof": "none",
    "servers": {
      "0x5": {
        "name": "goerli",
        "verifier": "eth",
        "needsUpdate": false,
        "contractChain": "0x5",
        "contract": "0xfea298b288d232a256ae0ad5941e5c890b1db691",
        "nodeList": [
          {
            "deposit": 0,
            "chainIds": [
              "0x5"
            ],
            "address": "0x45d45e6ff99e6c34a235d263965910298985fcfe",
            "url": "https://in3-v2.slock.it/goerli/nd-1",
            "props": 65535
          },
          {
            "deposit": 0,
            "chainIds": [
              "0x5"
            ],
            "address": "0x1fe2e9bf29aa1938859af64c413361227d04059a",
            "url": "https://in3-v2.slock.it/goerli/nd-2",
            "props": 65535
          }
        ]
      }
    },
    "request": {
      "method": "eth_getBlockByNumber",
      "params": [
        "0x1",
        true
      ]
    },
    "response": [
      {
        "id": 2,
        "result": {
          "totalServers": 2,
          "contract": "0x08e97ef0a92EB502a1D7574913E2a6636BeC557b",
          "lastBlockNumber": 1546354,
          "nodes": [
            "0x1fe2e9bf29aa1938859af64c413361227d04059a"
          ]
        },
        "jsonrpc": "2.0",
        "in3": {
          "execTime": 150,
          "lastValidatorChange": 0,
          "lastWhiteList": 1546354
        }
      },
      {
        "jsonrpc": "2.0",
        "nodeShouldBe": "0x1fe2e9bf29aa1938859af64c413361227d04059a",
        "result": {
          "author": "0x0000000000000000000000000000000000000000",
          "difficulty": "0x2",
          "extraData": "0x506172697479205465636820417574686f7269747900000000000000000000002bbf886181970654ed46e3fae0ded41ee53fec702c47431988a7ae80e6576f3552684f069af80ba11d36327aaf846d470526e4a1c461601b2fd4ebdcdc2b734a01",
          "gasLimit": "0x9fd801",
          "gasUsed": "0x0",
          "hash": "0x8f5bab218b6bb34476f51ca588e9f4553a3a7ce5e13a66c660a5283e97e9a85a",
          "logsBloom": "0x00000000000000000000000000000000000000000000000000000000000000000000000000000000000000000000000000000000000000000000000000000000000000000000000000000000000000000000000000000000000000000000000000000000000000000000000000000000000000000000000000000000000000000000000000000000000000000000000000000000000000000000000000000000000000000000000000000000000000000000000000000000000000000000000000000000000000000000000000000000000000000000000000000000000000000000000000000000000000000000000000000000000000000000000000000000",
          "miner": "0x0000000000000000000000000000000000000000",
          "number": "0x1",
          "parentHash": "0xbf7e331f7f7c1dd2e05159666b3bf8bc7a8a3a9eb1d518969eab529dd9b88c1a",
          "receiptsRoot": "0x56e81f171bcc55a6ff8345e692c0f86e5b48e01b996cadc001622fb5e363b421",
          "sealFields": [
            "0xa00000000000000000000000000000000000000000000000000000000000000000",
            "0x880000000000000000"
          ],
          "sha3Uncles": "0x1dcc4de8dec75d7aab85b567b6ccd41ad312451b948a7413f0a142fd40d49347",
          "size": "0x25e",
          "stateRoot": "0x5d6cded585e73c4e322c30c2f782a336316f17dd85a4863b9d838d2d4b8b3008",
          "timestamp": "0x5c530ffd",
          "totalDifficulty": "0x3",
          "transactions": [],
          "transactionsRoot": "0x56e81f171bcc55a6ff8345e692c0f86e5b48e01b996cadc001622fb5e363b421",
          "uncles": []
        },
        "id": 1,
        "in3": {
          "proof": {
            "type": "blockProof",
            "signatures": []
          },
          "version": "2.0.0",
          "currentBlock": 1804860,
          "lastValidatorChange": 0,
          "lastNodeList": 1767893,
          "execTime": 275,
          "rpcTime": 274,
          "rpcCount": 1,
          "lastWhiteList": 1546354
        }
      }
    ]
  }
]