{
    "nodeList": {},
    "tests": [
        {
            "descr": "kovan block",
            "success": true,
            "request": {
                "method": "eth_getBlockByNumber",
                "params": [
                    "0x967a66",
                    true
                ],
                "config": {}
            },
            "response": [
                {
                    "jsonrpc": "2.0",
                    "result": {
                        "author": "0x0010f94b296a852aaac52ea6c5ac72e03afd032d",
                        "difficulty": "0xfffffffffffffffffffffffffffffffe",
                        "extraData": "0xde830200088f5061726974792d457468657265756d86312e32392e30826c69",
                        "gasLimit": "0x7a1200",
                        "gasUsed": "0x455a5",
                        "hash": "0xa49d4fb25b279a96217f68309a2e9bee95b996b56a5c223fda2c099934d74465",
                        "logsBloom": "0x00000000000000000000000000000000000000000000000000000000000000000000000000000000000000000000000000000000000000000000000000000000000000000000000000000000000000000000000000000000000000000000000000000000000000000000000000000000000000000000000000000000000000000000000000000000000000000000000000000000000000000000000000000000000000000000000000000000000000000000000000000000000000000000000000000000000000000000000000000000000000000000000000000000000000000000000000000000000000000000000000000000000000000000000000000000",
                        "miner": "0x0010f94b296a852aaac52ea6c5ac72e03afd032d",
                        "number": "0x967a66",
                        "parentHash": "0x03ed475237eef651c61aaa3458a31b0244f650dbba7584650ffeb835f91fc53b",
                        "receiptsRoot": "0x11ed2599fe52737602c50996179636a57a702c0ee766b04d85f4e240363a8df7",
                        "sealFields": [
                            "0x841709838d",
                            "0xb8410958fdce1ab542f0834f2d7208f0b49dae25dfd177823c63efbb63740038d9e36c69822597247799d6f1f6cc34531d6891f34ff4142aef9221b55ba3b6c1b45901"
                        ],
                        "sha3Uncles": "0x1dcc4de8dec75d7aab85b567b6ccd41ad312451b948a7413f0a142fd40d49347",
                        "signature": "0958fdce1ab542f0834f2d7208f0b49dae25dfd177823c63efbb63740038d9e36c69822597247799d6f1f6cc34531d6891f34ff4142aef9221b55ba3b6c1b45901",
                        "size": "0x727",
                        "stateRoot": "0x388fbb23055cf7bd2e6c0f78b106153e5fea9853ce69ea56cf9721ee37792e26",
                        "step": "386499469",
                        "timestamp": "0x5c260e34",
                        "totalDifficulty": "0x94375700000000000000000000000484b6f336",
                        "transactions": [
                            {
                                "blockHash": "0xa49d4fb25b279a96217f68309a2e9bee95b996b56a5c223fda2c099934d74465",
                                "blockNumber": "0x967a66",
                                "chainId": null,
                                "condition": null,
                                "creates": null,
                                "from": "0x883341becd0366282c99f05fc92a56eff8d02b6c",
                                "gas": "0x5208",
                                "gasPrice": "0x77359400",
                                "hash": "0xf20cf2c45521fec21f356db69acac5be7de4fd99264ed98360e248bea705423d",
                                "input": "0x",
                                "nonce": "0x7063",
                                "publicKey": "0x745caf9b5bcc812d9b5defc55effc4a4db256b20a7adffa5c10c9a7610eebc5d99c2d34d8581fcf075df0e41aa3ec1580f8c8b8bb71f0de47a8aa69f626ee513",
                                "r": "0xdca7a1647f090d163796b1431bb5aa5821481300d19c115285d4ef19fc28d562",
                                "raw": "0xf8658270638477359400825208946907d0d42d6f41e3cac797ff38e65157373e51f380801ca0dca7a1647f090d163796b1431bb5aa5821481300d19c115285d4ef19fc28d562a0413d460bb90b61e6b897698d35eec8fbfd37a2205898c9f1c7af24acbccfcce3",
                                "s": "0x413d460bb90b61e6b897698d35eec8fbfd37a2205898c9f1c7af24acbccfcce3",
                                "standardV": "0x1",
                                "to": "0x6907d0d42d6f41e3cac797ff38e65157373e51f3",
                                "transactionIndex": "0x0",
                                "v": "0x1c",
                                "value": "0x0"
                            },
                            {
                                "blockHash": "0xa49d4fb25b279a96217f68309a2e9bee95b996b56a5c223fda2c099934d74465",
                                "blockNumber": "0x967a66",
                                "chainId": null,
                                "condition": null,
                                "creates": null,
                                "from": "0xe0426ceb64cda1c4ffdca5f80ecb7cbf5641f6ea",
                                "gas": "0xf4240",
                                "gasPrice": "0x3b9aca00",
                                "hash": "0xad72b65cd5e9666c23e5217579b41cb490fe0d74973aa41b77008a884058b91f",
                                "input": "0xc959d3200000000000000000000000000000000000000000000000000000000000000100000000000000000000000000000000000000000000000000000000000000016000000000000000000000000000000000000000000000000000000000000001a00000000000000000000000000000000000000000000000000000000000000200000000000000000000000000000000000000000000000000000000000000024000000000000000000000000000000000000000000000000000000000000002a0000000000000000000000000000000000000000000000000000000000000032000000000000000000000000000000000000000000000000000000000000003800000000000000000000000000000000000000000000000000000000000000040623537306235613861666230623639633665636162633933363030363131386234303962663839323165396632356531616537613138386635343930656330360000000000000000000000000000000000000000000000000000000000000015332c31353435393937383530383734303131382c3200000000000000000000000000000000000000000000000000000000000000000000000000000000000040666139663037633138646430646338396333623464396439643665626535613163613862356639323764333132306536333733613230653763646639373135660000000000000000000000000000000000000000000000000000000000000015332c31353435393937383531303435323733622c3200000000000000000000000000000000000000000000000000000000000000000000000000000000000040373761636365663362363261393932616230323766393264356337343530663366316161376231663263663335613138636561363063336265303332366462640000000000000000000000000000000000000000000000000000000000000044332c3135343539393738343737303232323034313232333063313431353139316433613236306230323137313830643261336433383264333733313339303733342c3235000000000000000000000000000000000000000000000000000000000000000000000000000000000000000000000000000000000000000000000040623435656237316137303131316539303432613937336234346137633766646562396330303465663336313466376461633961646432643239656565623430350000000000000000000000000000000000000000000000000000000000000044332c3135343539393738343737323130313238313233363133303532363331326332323138303730383235336430323161316230643339333433613039333331342c323500000000000000000000000000000000000000000000000000000000",
                                "nonce": "0x22cd",
                                "publicKey": "0x675487272c2613de0f701b2d80090c13b88504950d977ca91d5da1cbece5d5540fde2a275ab95dbddbb0caafa5b00c6a2a5f5a98701ecd61ce7f32a1be01bfd0",
                                "r": "0xdfcfe33addd45539725fc718c08d0ca6f86c2b0fb21542a90dc514869172fe9a",
                                "raw": "0xf9046c8222cd843b9aca00830f424094691c17f15e4bef38538c858ee0ea603ed4e8526580b90404c959d3200000000000000000000000000000000000000000000000000000000000000100000000000000000000000000000000000000000000000000000000000000016000000000000000000000000000000000000000000000000000000000000001a00000000000000000000000000000000000000000000000000000000000000200000000000000000000000000000000000000000000000000000000000000024000000000000000000000000000000000000000000000000000000000000002a0000000000000000000000000000000000000000000000000000000000000032000000000000000000000000000000000000000000000000000000000000003800000000000000000000000000000000000000000000000000000000000000040623537306235613861666230623639633665636162633933363030363131386234303962663839323165396632356531616537613138386635343930656330360000000000000000000000000000000000000000000000000000000000000015332c31353435393937383530383734303131382c3200000000000000000000000000000000000000000000000000000000000000000000000000000000000040666139663037633138646430646338396333623464396439643665626535613163613862356639323764333132306536333733613230653763646639373135660000000000000000000000000000000000000000000000000000000000000015332c31353435393937383531303435323733622c3200000000000000000000000000000000000000000000000000000000000000000000000000000000000040373761636365663362363261393932616230323766393264356337343530663366316161376231663263663335613138636561363063336265303332366462640000000000000000000000000000000000000000000000000000000000000044332c3135343539393738343737303232323034313232333063313431353139316433613236306230323137313830643261336433383264333733313339303733342c3235000000000000000000000000000000000000000000000000000000000000000000000000000000000000000000000000000000000000000000000040623435656237316137303131316539303432613937336234346137633766646562396330303465663336313466376461633961646432643239656565623430350000000000000000000000000000000000000000000000000000000000000044332c3135343539393738343737323130313238313233363133303532363331326332323138303730383235336430323161316230643339333433613039333331342c3235000000000000000000000000000000000000000000000000000000001ba0dfcfe33addd45539725fc718c08d0ca6f86c2b0fb21542a90dc514869172fe9aa00a3cfbf12493feafaeb3e103aed536c3950846a009c61c754b2b39c3c4c3b164",
                                "s": "0xa3cfbf12493feafaeb3e103aed536c3950846a009c61c754b2b39c3c4c3b164",
                                "standardV": "0x0",
                                "to": "0x691c17f15e4bef38538c858ee0ea603ed4e85265",
                                "transactionIndex": "0x1",
                                "v": "0x1b",
                                "value": "0x0"
                            }
                        ],
                        "transactionsRoot": "0x77c23ec86250c5b43282589f84d2e3069ee0439535a4c089fb636072b92e2344",
                        "uncles": []
                    },
                    "id": 77,
                    "in3": {
                        "proof": {
                            "type": "blockProof",
                            "signatures": []
                        },
                        "currentBlock": 9861756,
                        "lastNodeList": 8057063,
                        "execTime": 75
                    }
                }
            ]
        }
    ]
}