[
  {
    "descr": "eth_signTransaction",
    "request": {
      "method": "eth_signTransaction",
      "params": [
        {
          "from": "0x00a329c0648769a73afac7f9381e08fb43dbea72",
          "to": "0x2c055df8d095a98099dc8942510a65d51480840e",
          "data": "0x",
          "value": "15023483000000000",
          "gasPrice": 1000000000,
          "nonce": 32
        }
      ]
    },
    "result": "0xf86a20843b9aca00829c40942c055df8d095a98099dc8942510a65d51480840e87355fc737810e00802ea038448f7f8591b29e97694ae8c317de840fb2e7b178714fd3d102ed082682c639a04ab7da09a2e7acb717c53c7a610c63ea9e703d483603abd066f9ada4adf88c98",
    "success": true,
    "config": {
      "proof": "none",
      "pk": [
        "0x4d5db4107d237df6a3d58ee5f70ae63d73d7658d4026f2eefd2f204c81682cb7"
      ],
      "chainId": "goerli"
    },
    "response": []
  }
]