[
  {
    "descr": "in3_decodeTx",
    "request": {
      "method": "in3_decodeTx",
      "params": [
        "0x02f88f01128459682f00851102dc833e82b4bb94283af0b28c62c092c9727f1ee09c02ca627eb7f580a4f14fcbc8570e1c3a1976b37166e49ae15c8668b80e6b22cb19ab92ab6e0a85b22c5763d8c080a0acc21e87ad6700c380534323e3a01a582a9c89f73c9a9a527342530c13d9707fa06a5e1f5c85a641be8d20f7a55be5452220c8a5fce1e91f04dd26fc25358b66a2"
      ]
    },
    "result": {
      "type": 2,
      "hash": "0x4bb11ae4af2bd4d40e448a29c01fcac7050f8ce00d6bb5765bf5259517e34103",
      "chainId": "0x1",
      "nonce": "0x12",
      "maxPriorityFeePerGas": 1500000000,
      "maxFeePerGas": 73062449982,
      "gas": "0xb4bb",
      "to": "0x283af0b28c62c092c9727f1ee09c02ca627eb7f5",
      "value": "0x0",
      "data": "0xf14fcbc8570e1c3a1976b37166e49ae15c8668b80e6b22cb19ab92ab6e0a85b22c5763d8",
      "accessList": [],
      "v": "0x",
      "r": "0xacc21e87ad6700c380534323e3a01a582a9c89f73c9a9a527342530c13d9707f",
      "s": "0x6a5e1f5c85a641be8d20f7a55be5452220c8a5fce1e91f04dd26fc25358b66a2",
      "unsigned": "0x02f84c01128459682f00851102dc833e82b4bb94283af0b28c62c092c9727f1ee09c02ca627eb7f580a4f14fcbc8570e1c3a1976b37166e49ae15c8668b80e6b22cb19ab92ab6e0a85b22c5763d8c0",
      "signature": "0xacc21e87ad6700c380534323e3a01a582a9c89f73c9a9a527342530c13d9707f6a5e1f5c85a641be8d20f7a55be5452220c8a5fce1e91f04dd26fc25358b66a200",
      "publicKey": "0x2fe90620bae0f3f008847a39868f1eb841e7b5cbf8840cbe86deeda87ab06877df81ed697c44a70f77161a0bff7031e0f78c677fe35dbf670491974806fc4fc7",
      "from": "0xde82a4504dfa72089be9a0c569b8afb76a1de421"
    },
    "config": {},
    "response": []
  }
]