
static int code_len = 636;
char * code_res = "[{\"jsonrpc\":\"2.0\",\"result\":\"0x6080604052348015600f57600080fd5b506004361060325760003560e01c806385a2dd15146037578063894c0b9b146059575b600080fd5b603d6087565b604051808260ff1660ff16815260200191505060405180910390f35b608560048036036020811015606d57600080fd5b81019080803560ff169060200190929190505050609d565b005b60008060009054906101000a900460ff16905090565b806000806101000a81548160ff021916908360ff1602179055505056fea265627a7a723158204977d98f1ec59688a5fda5d7952cdd7f85846c442148afb84e5e065b7a4402ba64736f6c634300050b0032\",\"id\":1,\"in3\":{\"lastValidatorChange\":0,\"lastNodeList\":1527136,\"execTime\":69,\"rpcTime\":68,\"rpcCount\":1,\"currentBlock\":1670967}}]";
static int ethcall_len = 6295;
char * ethcall_res ="[{\"jsonrpc\":\"2.0\",\"result\":\"0x0000000000000000000000000000000000000000000000000000000000000001\",\"id\":1,\"in3\":{\"proof\":{\"type\":\"callProof\",\"block\":\"0xf9025ca01e7b01e44f787ce4be439bc747b9753532d42a33875b41e013b0a485a750d991a01dcc4de8dec75d7aab85b567b6ccd41ad312451b948a7413f0a142fd40d49347940000000000000000000000000000000000000000a02668bdd6efa55089a66d5d8da0c8cf2844fab459c670dd0054e8ee09470a391ba087e25103f8f652da4134dcb21c1e733b603f83cb114704f38b174bb2474b393aa041af88af138ee0664dcac8e3b9aab139efc88d7734589b78470787cd36b9a170b90100000000000000000000000000000000000000000000000000000000000000000000000000000000000000000000000000000000000000000000000000000000000000000000000000000000000000000000000000000000000000000000000000000000000000000000000000000000000000000000000000000000000000000000000000000000000000000000000000000000000000000000000000000000000000000000000000000000000000000000000000000000000000000000000000000000000000000000000000000000000000000000000000000000000000000000000000000000000000000000000000000000000000000000000000000000000183197f37837a12008302d0c6845dd29e46b861000000000000000000000000000000000000000000000000000000000000000044397267c4fe1fb7db376a5bd62b06cba852a5885860cefffa5b9554481b15a849818cae12d6720b644021341a47523a72889e9412209a098fc80c2fb971472b01a00000000000000000000000000000000000000000000000000000000000000000880000000000000000\",\"signatures\":[],\"accounts\":{\"0x36643f8d17fe745a69a2fd22188921fade60a98b\":{\"accountProof\":[\"0xf90211a07e6e630ac0527b7fe2e551c2b88f96db41b0b064a9287e6297c5dfcd95480eb6a06e3f368f0cc24ceaabdb316c10eb135f126735cb03f0d66145a92ff6f4e09dbaa07a7ecc6454d873d0b2c43f331d052faef2c6bd2502f1338a21248c741273ac31a09484cdbaeebcb232189260cd0b1ef8b822ea4f6023fd566af16cdb30b9c14162a0ad9cfa68375bf4d5a7e82dc277256732abbafe87812182836bcf6679f927d32da034b8751f8debf6a3386ca1cf88962afac6f9a4b63f1682a4182edb806c48dfa6a092bf427e84acef3ac1758a733f24dfbc7604d147e958c9a99cf7ceead9c4f322a0238d9a61bb41c4a25e053e3af6d5aec6504e42b78bb56a6635cbfad71fdd2191a0f25c76ee12f63509c6ca556ffab58ce6c9094a54f1976356198df8e7cc0a9316a039d7c4c18cc81c049b3e97cdbba719546ebdd31819f86df542f200ca2cc27baba03e8d426753fc1ea2abb072c0ff7061f157912fbd90a394768bf1d6453f2a916ca0fad58937f9c52e6b381715ac833d9c4a9b20fc991bc56b2d85bbb9b2ecf512cda0b55998a0237c3ea41199c3606485c2caafbd554093fb1d7d247b6f3e342f21e1a0df217add4dc581ccc3869257102db64502d70e2794799025e3e114e2c82b7ac8a0c03405024eb38cff228bf2a404145557a0429952036d85237bf8f42a9402dccea018381ffdabd5a95167cd4487d030fd6f43bb190ca5aebe4690cf2a92878b461880\",\"0xf90211a0da5389bf4c3dc7b86fc2fae3fd2b30d98de33cd1b932009531ee181fb1306fb3a01a0572f9b96d945da30e02990ec05a23ee8d968d1824b5a6af3fc1b27f2eac59a0c5a568ea3e87a21eda96b68cd9f7b073672fef1fa0954a5ae4e7a0a4dfc11531a03129a546feeb0a1dafab3f7cc12e8ee7d480952e8208b57273d285c5c4d440f8a0c9af11c3415b8db7655b7d9428c91f16fc344c0521b946e503d6e84f511b4427a0b7db13f5d0aa94bb4b4bc8d90aa56c2fe02fbea0c1ac8088b45843e5ef24aca4a0bf3c11eaa56011096ed0ce84227195550ba4edb7fc135d0245accdbca03522a4a0aaf6a2b2780cf92a4e7457463b7b531dc5b9f0269059c9bbd357de554b381f31a027337864654cc81c1e60457d1a62bd05e1bc650c0987994ca98a472e59d6d5e1a0e66114cd499ba8d7f6ec42c1c2f830e8b81eb719707e90485b65eaca3e56a486a00efd6a29c5f594d068a008a5748447321e1c12ff9dc188ae1039c9de648fe6dba0cd1eece288614f53e03ea1bc3beee90769077bc010b1d2f38e571f7a705737d4a0880778cace0a8d7d983a50295481a34d9de72a5db16efbbdd8c9015d70ccb1e4a084c87deab37a93e7afe043bd1d2583e411d78031c6e8781881af2676091d4d9fa01fe6597c133c99abcc7852aceeb3a81361306a1d65806d338ea3cf46d74e7a48a0e995a36ef0be1f2175a1a7b4076cdbb1f3bdbf431365c084f13835f604692a6180\",\"0xf90211a006e2dc5ac0cf38acdf50ec1eff873ec89e92dff53ad2bced1668e8e6ffdd3004a02b74290f53fea2d913536668f85072de7da5901cb79673d47a173dec17075187a0cd6b6ea55ad80554271f535f4b4d7e77fc29263dc4ac1ca928988c9661e2bd0ca04f767655e39a4a3af898fb728486dc1e3dc5a998a0140917722719bce729e480a0e36073e8b6eb9be4721e3c2b72d1b65749eaec78586b3d0549ce4db73a0658eda068127851e22a6ad0ebae4b562e6be65b88c59968ba3d7285878ebe9408c514eba0ed703d1269e8d668f3b2a272315f9ee18592fb636ad39566583e8b3064ca156ea0f1b2e100123b5b8c3d93ecd9fec6673b551766d0e949ae4819c20d5749aaca02a038c93a7c03a29d6a15996d88ebb5d5360947ab40ad21120ef425e4a8559cc189a0515b183121dc92683236d9aa545f0ac08b3c7f6dd9199116b076030dd0b3e7aaa0138eec3dded3b3748b8dbc521510430ce02b392a6e57ad7a14ff8fbaaa1c1a9ea03b2cf8cb55de43c7b677406034de11e82bfb2fd4457f7a5ee717490445f82788a0859a48f3e06d62c3224e9dc8977982181a7d502fcc8bf26259d9a60fc631589ca0e69b5fb2316d1b54753ce652b2dabe7b4f9ddf46d029ee5efdc9b9905481411da00e3f2ad431c597b2935859b55846b6d17ff47866170097645dd896e86adecb77a09b42d93560f8c07f8dda616fd35c4d1e910248d3592f0c6bd9bc5da4e1c9692680\",\"0xf901518080a02c563764c450274db1cb7ed88cb682e357593263c87f03702e61f27038e6e92280a03b791f9b5ea7b53ccc84bab05c1ab7fc182e5bd509489443e243a52834f12c4da02f3649d1bacefd45f4b86a92519e11fefde52bf9c033de305ab01e52da1e48e1a0a5b9e0f7516da5fc7363da0173758cf09a9d5e690871de79cb679c4fc58461a3a01b364c944363705f8ece380cff7c2e97f02ec60bf1dfab7fb05416650e521e07a03daf12fc314f893f348f1d182f7151383a75b13a8b24dba331d3a6c1e907f33fa0c0e749ab6f93f5e2d8c3ddce4069b14209bc1af57ae92495a2aab329c05cec4680a02ce6842baa2cf1f1ae3ca83d14671d0542a68d56ee6e5988fcf3bebe350871fb80a067fd774407561e7a0a58dab51f060e6aae9f328b5b0da61eabb9c3fbdc7d088580a0f6a420560467e2f0373f048d29563653021b07d9e6bec69b0b441a2aba5c184680\",\"0xf8718080a05962e5c16b55955a1b3e61772a6e724d3a1781d01560a451af4863fd8e9fa93a808080a01f98d45e3935f95ab00d8719a0fc6622c7b94f222ac5a8646cddda41c9d2a05f80808080a0fa04c9c955cb58796e3c31163dfc2a7eabe844afa89b2fa56e41e374498b3d788080808080\",\"0xf8679e3f79d03bccd3d5515f1e14b1abc5eefe027e5a7252bcfd9f428823d3593db846f8440180a0821e2556a290c86405f8160a2d662042a431ba456b9db265c79bb837c04be5f0a08bfc1c7c7464660a68ba241ea78b6a1d36cd85b5cb4fba521d4270bd0c7d7bb7\"],\"address\":\"0x36643f8d17fe745a69a2fd22188921fade60a98b\",\"balance\":\"0x0\",\"codeHash\":\"0x8bfc1c7c7464660a68ba241ea78b6a1d36cd85b5cb4fba521d4270bd0c7d7bb7\",\"nonce\":\"0x1\",\"storageHash\":\"0x821e2556a290c86405f8160a2d662042a431ba456b9db265c79bb837c04be5f0\",\"storageProof\":[{\"key\":\"0x0\",\"proof\":[\"0xe3a120290decd9548b62a8d60345a988386fc84ba6bc95484008f6362f93160ef3e56301\"],\"value\":\"0x1\"}]}}},\"currentBlock\":1670967,\"lastValidatorChange\":0,\"lastNodeList\":1527136,\"execTime\":174,\"rpcTime\":172,\"rpcCount\":2}}]";
static int node_len = 19255;
//static int node_len = 19637;
char * node_res = "[{\"id\":1,\"result\":{\"nodes\":[{\"url\":\"https://in3-v2.slock.it/goerli/nd-1\",\"address\":\"0x45d45e6Ff99E6c34A235d263965910298985fcFe\",\"index\":0,\"deposit\":\"10000000000000000\",\"props\":\"29\",\"chainIds\":[\"0x5\"],\"timeout\":\"3600\",\"registerTime\":\"1570106331\",\"weight\":\"2000\",\"proofHash\":\"e78f63f744ad929e2e8e5a56a2ece1910e2746468a4dded5051816b2c7f17cb1\"},{\"url\":\"https://in3-v2.slock.it/goerli/nd-2\",\"address\":\"0x1Fe2E9bf29aa1938859Af64C413361227d04059a\",\"index\":1,\"deposit\":\"10000000000000000\",\"props\":\"29\",\"chainIds\":[\"0x5\"],\"timeout\":\"3600\",\"registerTime\":\"1570106376\",\"weight\":\"2000\",\"proofHash\":\"75ee6ff4c60116898485089c7511cd927ac0797976b96bb3bf4e829606696257\"},{\"url\":\"https://in3-v2.slock.it/goerli/nd-3\",\"address\":\"0x945F75c0408C0026a3CD204d36f5e47745182fd4\",\"index\":2,\"deposit\":\"10000000000000000\",\"props\":\"29\",\"chainIds\":[\"0x5\"],\"timeout\":\"3600\",\"registerTime\":\"1570106391\",\"weight\":\"2000\",\"proofHash\":\"0cd0c844682507c091d2e6c6713e11eb43edf24348a85e1666db47c8ab6bd2c9\"},{\"url\":\"https://in3-v2.slock.it/goerli/nd-4\",\"address\":\"0xC513A534De5A9d3F413152c41B09bd8116237fc8\",\"index\":3,\"deposit\":\"10000000000000000\",\"props\":\"29\",\"chainIds\":[\"0x5\"],\"timeout\":\"3600\",\"registerTime\":\"1570106421\",\"weight\":\"2000\",\"proofHash\":\"6783698b37cf52b13768c0e92c978fcb6cc1b37bd8132dc8debde83f5e0da7ec\"},{\"url\":\"https://in3-v2.slock.it/goerli/nd-5\",\"address\":\"0xbcdF4E3e90cc7288b578329efd7bcC90655148d2\",\"index\":4,\"deposit\":\"10000000000000000\",\"props\":\"29\",\"chainIds\":[\"0x5\"],\"timeout\":\"3600\",\"registerTime\":\"1570106451\",\"weight\":\"2000\",\"proofHash\":\"7fcf0ee638cfa8d38823d3a3b0616e71ff9c70e39918c31b22361b605dbbf3c2\"}],\"contract\":\"0xfea298b288d232a256ae0ad5941e5c890b1db691\",\"registryId\":\"0xa551fe03f855370f0fca881f5f2f6b8f7731a92e371c4de5f5c610833881059c\",\"lastBlockNumber\":1527136,\"totalServers\":5},\"jsonrpc\":\"2.0\",\"in3\":{\"execTime\":0,\"lastValidatorChange\":1,\"proof\":{\"type\":\"accountProof\",\"block\":\"0xf9025ca0d6a4bdeb6016d73558b6f0bd67784a8d3b906ad8bf72b8819bc3eb3482444a95a01dcc4de8dec75d7aab85b567b6ccd41ad312451b948a7413f0a142fd40d49347940000000000000000000000000000000000000000a02bfb6f19923ae60281eb490d9b4eb491427df89ef1dc72d0149a3a982f9c5795a0a5ef12921adbcd68fd6251e2722b495fc05c29e56753181377d445c7cada88b5a0c9eb8d09410b298b8d67adb0db4f4366360b316e7049bd1e7e3a6b513f6acfd2b90100000000000000000000000000000000000000000000000000008000000000000000400000000010000000000000000000080000000200000000000000002020000000000000000000000000000000000000020000000000000000000000040004000000030000000000000000001000000000000000000000000000000000000000000010000000000000000000008000000080000000000000000040001000000200000000100000004000000000000000000000408000000000000000004000000000000000000000000000000000000000000000000000000000000000001000100000000000800000000000000000000000080000000000400000000000000283174d60837a120083034a94845db1af50b861d883010903846765746888676f312e31322e39856c696e757800000000000000a72f2e7b84fa4cfd9915034539914c04ef6feed94c5975b05cf69b116305f0174102a6a5233e05c5cb7ece06eafb62183a14f4eb96267382faa453f04f6457d101a00000000000000000000000000000000000000000000000000000000000000000880000000000000000\",\"accounts\":{\"0xfea298b288d232a256ae0ad5941e5c890b1db691\":{\"accountProof\":[\"0xf90211a0749460f8bf961937eff7e2baa21decfbfc1db7462fc5f37604e3e1f59f50a534a097756d661783a6e34c5e2c960f3cb6ff60a34e7ee1c4a57cae95df322c05c7e4a0097c1d6b23d7ca155a52ce2a2d0988dbf0dc62b8918f6c2c40ad3da485b41043a054a770048544ec6c4cb3874fa0943e29817b6f9c4388920d6cebf012b7958991a01b083dbde94ebaa3b72b90db7f6367eb7c9df6c4b39a43165bbd55ff11f85675a0fa7c56ba8160dd7d063f6d4f43c53b1c33c4d9a5e32b52f76673c6a8fb87e7e6a0a0ef739becb5b45277913bf572f340d23eac9d254a3521f1b40b642e86c55f9ba0b0993abc41e2b6188d18da15430c7ecf9527c4961f62c484f0dd62dd4f1b3cd6a09675c438811dd8a1c2bda702e345897c0bf466e3d942ab425b525ac847ad1f06a032566243c5c67acf7305699a4d484ec9556588d8d318705fe3ed5ac766106882a06fb683b7f909c6f006cf9958e0fbc15e11d47d1c619ae43cf3b337f57f171dd5a0e49bff38b1d6bccd125fbc3589c2db48304716177b2eaa33f382b119a70cea92a08fdabae4c3cf8e210449079f952020d4eb1c2ca0f36c80451c4abce24f5c5075a0a9745e1d44ec68451f48aeb2304faf7c5759440295f5ef34b8fddf3435da69d3a089da4ea31076be1666c3840623273028c25c4c10606954178de5ca41ef869570a09b923826ec35fcf75c5ef76b68455b61bca795627bf19dc21a1356ee5e6dbfaa80\",\"0xf90211a04c30a9bae4b0a847dc7eaab9646a954f157ca541f9bc20a2699dcad4ea39495aa00ac62ca4315ae8488c14eefc84fa58d42457548fc74d99de23369ace726e131ea0b188a5295a3ecd61b5a6f3c63e04f04eebfc305e461cb69b8f403db6ac0f252ba05f5ad0422cf210144958d7f805bd063ffc493e244fa23178955de1a1533890e9a0940e7fb8ffffc0cb07585611ead0dff8e2149889e428dfea4b2a1ae8fe4e3a0aa0bdbc3b4efdec9fccc361565f585de577bd3ea69d85db5e0afad2120602d72cc6a0b4d3587726c46c76d1216394c68fc9d00f89b15232c11705b406678d66dac770a0d82410a1d9d575385ca31fa1f49a2881c17a832f60661fde5d0444838a8965bda04bed067a4622c6702696d0c0d1c214f4f878178e2d4591bcdcc23264478d573ca0d6bb49603573e1868867fd87da2c53a49f275af765235596ac8ebf988b215b77a04b5dccd49f87c51d625cf1171d38dc9a12d5ff9321f6bb0389ef90b00f374e01a0d49c2f6c864272ccbc386c9505095a4fe3183694d7d445177344579815cdfd1ba06e4d5b4ece3c645bb08354ac92dec80bfda4217f594c768f1884aee914d808cda0a351cd1aed394dbdc87af2e5739db3ef82ffc55817a2c75b466a24a4337ed51fa0274efbf978d963c81b092f09807415babc0aba6a84837a9e3d0925d0663e9fe0a042540cb99124dbfeebfc83c1e6619df14a1bd05b83eda43c78c8938b5aec974a80\",\"0xf90211a009151c652c6033ed9bbf10f9b8cc92788161db838b0bbb3851758303d56c04bfa0f6e737ff8648796d8d0e61721097f4a734189ccb053611fddcdfc6082ff3b8daa0a78dff9ff703df6b9f5754a80618bb651ac8f43d8d245cdf94e4fa01219c2b19a0d4e31da90f7bdbc5145f9a1396e66881235bbb70ca1158a449d8e0f008c56baaa07f53b174b9745634dd8410453db102a93cac22dbece0d0b00ffe9746fa6f8b9ea008ac4c9378d796469b408871f59ed464f5ff75ed4c63046d41ecf77dd2f309a1a021f118eb9d5c076a1f1079a2a6a2ebd45583b62d61d0dd2bf33947b3604962f7a07212c0c11e2dff67b7e1e372e36ae4b941ee74d05ac7fecf9ad608fd3e72e389a0d5351782e4bfca69910662bba03cdbdd5c69f07983ad980bea997632752ea6e5a04abde0b28829e68d738c2b6d6b92c939c050815c1abaf9a3e07a067ae1b6a89da01f5ecd014200d9f24155dbd5a658ccd534a48fd5e044f8042e5c968b3d9b1637a026353b9c7efb7d2e6c13291b514c93328e8daa9be1d6ddebe4e640c829d9b608a092863051e97ef0cca3f71c2ac37c7a3e297086c9d3acc8ea92a093131c11398fa04e12d34e3a51deff3eb16a5559a22f5d5767bb6488be5a92641bdf484f3d7125a0ab6819bca2911769da8ae3e2778eac229c3ab8aa8d6ee118df4bde6cb805bc68a0341550174c2b4ec5209cb57f8f4efbf83dc6d3902ba5dbbdc40977cb2a0b9a6b80\",\"0xf90131a0b9bb974d9f0c0b72e6f82bbba279a6dbf5417860c21e6c9b193449af827b2ee2a082fc00e412f32e7be2ffbcd9c69835a70edb9a0c7bda8a622755f4a4a06ed259a07cdf188d265dc5b17e2d7070119c2407c522c8a9764e1a5318f6cb83abc2846aa076d8821b547c17586a14d1af0c0a605a6055870b23f670c86f7aba48a3e2fe40a0cd7b5724b56b7c50e6eaf23ec6314bf7772ca4ddb2e507b8ab8965a866543a3fa0306d757f7296570e83f891acd290fc0ed40e8cfe793b8eb415ee99ce342fea9380a00291ae87d7d705bd63043153313633ac6178985b4b53ccbf2353577e1b812191808080a0e5363f3a95924328352eb99d7a16a117d02f56df31ccacdb18d8e3231a2493568080a0803af6c7b851feb5ce95de1ad1f20a193aaf22180344bd52bafd6be172fbcb5b8080\",\"0xf871a09177bc78872a9ff2e8aa0e60002516da752f746828a665f2aa73a217ee592523a013f59ff275fc403befe5f9f0ca98fc1c9a9e579e44dbc5bce71ede5a56eeead680808080808080a0026588aab189b285b432acf2f328c0fe8acb9b24c40de8f08281633fa5683f2b80808080808080\",\"0xf86f9e310403e42f940f8a79d1ae23fe101b749f4ddba42b8fea1d7b30d32ad00eb84ef84c01880e92596fd6290000a012726ac82684c1d2af1ce5fbd4248303770f1c322d0363bdc99f78a6ca746493a018e64869905158477a607a68e9c0074d78f56a9dd5665a5254f456f89d5be398\"],\"address\":\"0xfea298b288d232a256ae0ad5941e5c890b1db691\",\"balance\":\"0xe92596fd6290000\",\"codeHash\":\"0x18e64869905158477a607a68e9c0074d78f56a9dd5665a5254f456f89d5be398\",\"nonce\":\"0x1\",\"storageHash\":\"0x12726ac82684c1d2af1ce5fbd4248303770f1c322d0363bdc99f78a6ca746493\",\"storageProof\":[{\"key\":\"0x0\",\"proof\":[\"0xf90211a0f83ba7c7041f00cc9a57d71422849ff304d969cbacb2111ec780c5e12c36cd97a085202daea26e230d442fb8b5c23b7f53360793438e88b37a1431605766c1766fa0998815bad877b238eb5e7515c28f775c6b9adc1f280dafebcfb14d5f75817093a00473a0971c98d903639bafc15c44c73f66887dc021189f8b079215688e8760f4a034e104914af1e4dcf07bb7d3eff58234fe7a24efc72d203f57a40b6c8947ccaba00be8b340536029c2414fa57ba8e51d736ca4b65aad1b7a003b20302ccc93f7afa024895232bf64ebae7aab895527e3f0e5da56dac14a0f0773a35802755c94b461a0a44272f59b6d76efa96d0332aef23002b31bf59c3f129d7adb1ef308b2d75f8ba07169965461e24e0573e7050b3087c6f01be8c293cc3382e033b602354fb2b039a0845dd889159d74c79901ae5d4018c03da5e3ffd814b1b30ab998a75796413584a04c403d9870c899a15fd6a91a77a432d026eab88d0156d7ecbe25dc960d2c4e23a02ae6a1a3aaf41586ce87878c5e45a7400370075cf08b41c1eefd64e78ea6503ea0e8f4d4a796a5f7eada01303cdf9168fd40d4d83a252394487433a5aa609a9f75a01d8b2a194aeacedef6268d6bf81d351fd0e2177ae007c5201ff7c10e9716d5c4a0659f7329087fdc36fbfd7926e2cfab1a21ded9670c048680f9d6d30ddc80eb09a01d6cc819b88e2433c90c9990aed9dc37c67c80729c88d583c96832b368b76d9b80\",\"0xf8d1a00630b605c0d15203bf5736e4d5b367d62b23c434892fb2c8ce1b7730c9fb96a98080808080a05c319d731d2d714368b54e3a9d841630b2592c7afc92ffe28a15225a639bd868a0f229214dba34c16ca65b1e0df175282a07b3ea9453d97f5b9e9e78762fe279fd80a081b7693d9ef9dea4b83b27e12fd4a86cfd861c266865545c3602ec6a1e43039da0bf73b8437dc32850158814b8c0c28c9c76a22c373fa84a77c3fc2175317a6aa18080a0bd01265657739e1793ae1ad68a77f330e98f0d5d5a53235211faa848c3eea787808080\",\"0xe2a0200decd9548b62a8d60345a988386fc84ba6bc95484008f6362f93160ef3e56305\"],\"value\":\"0x5\"},{\"key\":\"0x1\",\"proof\":[\"0xf90211a0f83ba7c7041f00cc9a57d71422849ff304d969cbacb2111ec780c5e12c36cd97a085202daea26e230d442fb8b5c23b7f53360793438e88b37a1431605766c1766fa0998815bad877b238eb5e7515c28f775c6b9adc1f280dafebcfb14d5f75817093a00473a0971c98d903639bafc15c44c73f66887dc021189f8b079215688e8760f4a034e104914af1e4dcf07bb7d3eff58234fe7a24efc72d203f57a40b6c8947ccaba00be8b340536029c2414fa57ba8e51d736ca4b65aad1b7a003b20302ccc93f7afa024895232bf64ebae7aab895527e3f0e5da56dac14a0f0773a35802755c94b461a0a44272f59b6d76efa96d0332aef23002b31bf59c3f129d7adb1ef308b2d75f8ba07169965461e24e0573e7050b3087c6f01be8c293cc3382e033b602354fb2b039a0845dd889159d74c79901ae5d4018c03da5e3ffd814b1b30ab998a75796413584a04c403d9870c899a15fd6a91a77a432d026eab88d0156d7ecbe25dc960d2c4e23a02ae6a1a3aaf41586ce87878c5e45a7400370075cf08b41c1eefd64e78ea6503ea0e8f4d4a796a5f7eada01303cdf9168fd40d4d83a252394487433a5aa609a9f75a01d8b2a194aeacedef6268d6bf81d351fd0e2177ae007c5201ff7c10e9716d5c4a0659f7329087fdc36fbfd7926e2cfab1a21ded9670c048680f9d6d30ddc80eb09a01d6cc819b88e2433c90c9990aed9dc37c67c80729c88d583c96832b368b76d9b80\",\"0xf89180a03620059c5c478951a24d4c4310bd495d89eaf527ce1601a0109ad43402e93acf808080808080808080a0795697adb61728dfeff04aa6a5f3524da1397e77ad14dfa4648e1937163a267080a00e79eee6286d4b2dea5800c6bcef87fd4c67d92d5cf3da96b469baae1faa4ea1a0e96af414d3c47b2731b29595e48bac8943396d9074ebb97ad7c07eb8567d98cc8080\",\"0xf843a0200e2d527612073b26eecdfd717e6a320cf44b4afac2b0732d9fcbe2b7fa0cf6a1a0a551fe03f855370f0fca881f5f2f6b8f7731a92e371c4de5f5c610833881059c\"],\"value\":\"0xa551fe03f855370f0fca881f5f2f6b8f7731a92e371c4de5f5c610833881059c\"},{\"key\":\"0x290decd9548b62a8d60345a988386fc84ba6bc95484008f6362f93160ef3e567\",\"proof\":[\"0xf90211a0f83ba7c7041f00cc9a57d71422849ff304d969cbacb2111ec780c5e12c36cd97a085202daea26e230d442fb8b5c23b7f53360793438e88b37a1431605766c1766fa0998815bad877b238eb5e7515c28f775c6b9adc1f280dafebcfb14d5f75817093a00473a0971c98d903639bafc15c44c73f66887dc021189f8b079215688e8760f4a034e104914af1e4dcf07bb7d3eff58234fe7a24efc72d203f57a40b6c8947ccaba00be8b340536029c2414fa57ba8e51d736ca4b65aad1b7a003b20302ccc93f7afa024895232bf64ebae7aab895527e3f0e5da56dac14a0f0773a35802755c94b461a0a44272f59b6d76efa96d0332aef23002b31bf59c3f129d7adb1ef308b2d75f8ba07169965461e24e0573e7050b3087c6f01be8c293cc3382e033b602354fb2b039a0845dd889159d74c79901ae5d4018c03da5e3ffd814b1b30ab998a75796413584a04c403d9870c899a15fd6a91a77a432d026eab88d0156d7ecbe25dc960d2c4e23a02ae6a1a3aaf41586ce87878c5e45a7400370075cf08b41c1eefd64e78ea6503ea0e8f4d4a796a5f7eada01303cdf9168fd40d4d83a252394487433a5aa609a9f75a01d8b2a194aeacedef6268d6bf81d351fd0e2177ae007c5201ff7c10e9716d5c4a0659f7329087fdc36fbfd7926e2cfab1a21ded9670c048680f9d6d30ddc80eb09a01d6cc819b88e2433c90c9990aed9dc37c67c80729c88d583c96832b368b76d9b80\",\"0xf851a02422ff9734840a59b1aac5f7e633a0c167a45b503806ad359251d39293e7f3418080808080808080808080a087e86f8486d2a2f621f473faedf1cd6f1ed981d04c6dcf40b09e2d0575ca2aee80808080\",\"0xf843a020418048a637d1641c6d732dd38174732bbf7b47a1cf6d5f65895384518b07d9a1a0e78f63f744ad929e2e8e5a56a2ece1910e2746468a4dded5051816b2c7f17cb1\"],\"value\":\"0xe78f63f744ad929e2e8e5a56a2ece1910e2746468a4dded5051816b2c7f17cb1\"},{\"key\":\"0x290decd9548b62a8d60345a988386fc84ba6bc95484008f6362f93160ef3e56c\",\"proof\":[\"0xf90211a0f83ba7c7041f00cc9a57d71422849ff304d969cbacb2111ec780c5e12c36cd97a085202daea26e230d442fb8b5c23b7f53360793438e88b37a1431605766c1766fa0998815bad877b238eb5e7515c28f775c6b9adc1f280dafebcfb14d5f75817093a00473a0971c98d903639bafc15c44c73f66887dc021189f8b079215688e8760f4a034e104914af1e4dcf07bb7d3eff58234fe7a24efc72d203f57a40b6c8947ccaba00be8b340536029c2414fa57ba8e51d736ca4b65aad1b7a003b20302ccc93f7afa024895232bf64ebae7aab895527e3f0e5da56dac14a0f0773a35802755c94b461a0a44272f59b6d76efa96d0332aef23002b31bf59c3f129d7adb1ef308b2d75f8ba07169965461e24e0573e7050b3087c6f01be8c293cc3382e033b602354fb2b039a0845dd889159d74c79901ae5d4018c03da5e3ffd814b1b30ab998a75796413584a04c403d9870c899a15fd6a91a77a432d026eab88d0156d7ecbe25dc960d2c4e23a02ae6a1a3aaf41586ce87878c5e45a7400370075cf08b41c1eefd64e78ea6503ea0e8f4d4a796a5f7eada01303cdf9168fd40d4d83a252394487433a5aa609a9f75a01d8b2a194aeacedef6268d6bf81d351fd0e2177ae007c5201ff7c10e9716d5c4a0659f7329087fdc36fbfd7926e2cfab1a21ded9670c048680f9d6d30ddc80eb09a01d6cc819b88e2433c90c9990aed9dc37c67c80729c88d583c96832b368b76d9b80\",\"0xf8918080808080a0a26c5f90f028898be4e12961969ae89f323a66586730f92b8fb2dd1ca0ba6f8a808080a04a0c4b948805886065449dad60fce7e1c7680a3bc4a235800fbd2edafac731e680a02067fa4bd77ffa67e6f84087f7534dd698190510064fa3c8d293f1bd531d092c80a06e763d18b94e23071c9cb26aa6ea0f34fd80f21f38c27cb494b12dc6fc3656eb808080\",\"0xf843a0205fcc8f73196524ea5f04c38888c2f09c6cbef411cb31e259d35b56e3d0047ba1a075ee6ff4c60116898485089c7511cd927ac0797976b96bb3bf4e829606696257\"],\"value\":\"0x75ee6ff4c60116898485089c7511cd927ac0797976b96bb3bf4e829606696257\"},{\"key\":\"0x290decd9548b62a8d60345a988386fc84ba6bc95484008f6362f93160ef3e571\",\"proof\":[\"0xf90211a0f83ba7c7041f00cc9a57d71422849ff304d969cbacb2111ec780c5e12c36cd97a085202daea26e230d442fb8b5c23b7f53360793438e88b37a1431605766c1766fa0998815bad877b238eb5e7515c28f775c6b9adc1f280dafebcfb14d5f75817093a00473a0971c98d903639bafc15c44c73f66887dc021189f8b079215688e8760f4a034e104914af1e4dcf07bb7d3eff58234fe7a24efc72d203f57a40b6c8947ccaba00be8b340536029c2414fa57ba8e51d736ca4b65aad1b7a003b20302ccc93f7afa024895232bf64ebae7aab895527e3f0e5da56dac14a0f0773a35802755c94b461a0a44272f59b6d76efa96d0332aef23002b31bf59c3f129d7adb1ef308b2d75f8ba07169965461e24e0573e7050b3087c6f01be8c293cc3382e033b602354fb2b039a0845dd889159d74c79901ae5d4018c03da5e3ffd814b1b30ab998a75796413584a04c403d9870c899a15fd6a91a77a432d026eab88d0156d7ecbe25dc960d2c4e23a02ae6a1a3aaf41586ce87878c5e45a7400370075cf08b41c1eefd64e78ea6503ea0e8f4d4a796a5f7eada01303cdf9168fd40d4d83a252394487433a5aa609a9f75a01d8b2a194aeacedef6268d6bf81d351fd0e2177ae007c5201ff7c10e9716d5c4a0659f7329087fdc36fbfd7926e2cfab1a21ded9670c048680f9d6d30ddc80eb09a01d6cc819b88e2433c90c9990aed9dc37c67c80729c88d583c96832b368b76d9b80\",\"0xf891a09b482d8c7d5b5fd462d97aab641a4f0ed369df9bebb680477464629ddf482c0a8080a0dd47825627994f367c57228c1c56550557729d2c58a02417850b27865e3beba68080a0bd2bd91e446ae22e6dca05aa746d3fa6a4e4660af363301534d1d6ee13cf6b41808080a04a5be21f4f0c0f5e1fcccb140e7cb5b1ff2ce45bce977d8e23cc7320e8c7bdd0808080808080\",\"0xf843a0206695c256a4a4a1b8ed004dc824e330f1747032632c0e6d88c1d84c330c1c5ca1a00cd0c844682507c091d2e6c6713e11eb43edf24348a85e1666db47c8ab6bd2c9\"],\"value\":\"0xcd0c844682507c091d2e6c6713e11eb43edf24348a85e1666db47c8ab6bd2c9\"},{\"key\":\"0x290decd9548b62a8d60345a988386fc84ba6bc95484008f6362f93160ef3e576\",\"proof\":[\"0xf90211a0f83ba7c7041f00cc9a57d71422849ff304d969cbacb2111ec780c5e12c36cd97a085202daea26e230d442fb8b5c23b7f53360793438e88b37a1431605766c1766fa0998815bad877b238eb5e7515c28f775c6b9adc1f280dafebcfb14d5f75817093a00473a0971c98d903639bafc15c44c73f66887dc021189f8b079215688e8760f4a034e104914af1e4dcf07bb7d3eff58234fe7a24efc72d203f57a40b6c8947ccaba00be8b340536029c2414fa57ba8e51d736ca4b65aad1b7a003b20302ccc93f7afa024895232bf64ebae7aab895527e3f0e5da56dac14a0f0773a35802755c94b461a0a44272f59b6d76efa96d0332aef23002b31bf59c3f129d7adb1ef308b2d75f8ba07169965461e24e0573e7050b3087c6f01be8c293cc3382e033b602354fb2b039a0845dd889159d74c79901ae5d4018c03da5e3ffd814b1b30ab998a75796413584a04c403d9870c899a15fd6a91a77a432d026eab88d0156d7ecbe25dc960d2c4e23a02ae6a1a3aaf41586ce87878c5e45a7400370075cf08b41c1eefd64e78ea6503ea0e8f4d4a796a5f7eada01303cdf9168fd40d4d83a252394487433a5aa609a9f75a01d8b2a194aeacedef6268d6bf81d351fd0e2177ae007c5201ff7c10e9716d5c4a0659f7329087fdc36fbfd7926e2cfab1a21ded9670c048680f9d6d30ddc80eb09a01d6cc819b88e2433c90c9990aed9dc37c67c80729c88d583c96832b368b76d9b80\",\"0xf89180a03620059c5c478951a24d4c4310bd495d89eaf527ce1601a0109ad43402e93acf808080808080808080a0795697adb61728dfeff04aa6a5f3524da1397e77ad14dfa4648e1937163a267080a00e79eee6286d4b2dea5800c6bcef87fd4c67d92d5cf3da96b469baae1faa4ea1a0e96af414d3c47b2731b29595e48bac8943396d9074ebb97ad7c07eb8567d98cc8080\",\"0xf8518080a0203ef1918968ae19be582bd9104de7a1db340bf95e8cfd960f94e9c15d6f8782808080a08b3d5373dc61f8d7985657e68bf37c2203d37db3923097399eeca34e740206cb80808080808080808080\",\"0xf8429f357165ee8c7eae64faf81e97823d50dba1b6a2be88bccea1ac5d01256f0590a1a06783698b37cf52b13768c0e92c978fcb6cc1b37bd8132dc8debde83f5e0da7ec\"],\"value\":\"0x6783698b37cf52b13768c0e92c978fcb6cc1b37bd8132dc8debde83f5e0da7ec\"},{\"key\":\"0x290decd9548b62a8d60345a988386fc84ba6bc95484008f6362f93160ef3e57b\",\"proof\":[\"0xf90211a0f83ba7c7041f00cc9a57d71422849ff304d969cbacb2111ec780c5e12c36cd97a085202daea26e230d442fb8b5c23b7f53360793438e88b37a1431605766c1766fa0998815bad877b238eb5e7515c28f775c6b9adc1f280dafebcfb14d5f75817093a00473a0971c98d903639bafc15c44c73f66887dc021189f8b079215688e8760f4a034e104914af1e4dcf07bb7d3eff58234fe7a24efc72d203f57a40b6c8947ccaba00be8b340536029c2414fa57ba8e51d736ca4b65aad1b7a003b20302ccc93f7afa024895232bf64ebae7aab895527e3f0e5da56dac14a0f0773a35802755c94b461a0a44272f59b6d76efa96d0332aef23002b31bf59c3f129d7adb1ef308b2d75f8ba07169965461e24e0573e7050b3087c6f01be8c293cc3382e033b602354fb2b039a0845dd889159d74c79901ae5d4018c03da5e3ffd814b1b30ab998a75796413584a04c403d9870c899a15fd6a91a77a432d026eab88d0156d7ecbe25dc960d2c4e23a02ae6a1a3aaf41586ce87878c5e45a7400370075cf08b41c1eefd64e78ea6503ea0e8f4d4a796a5f7eada01303cdf9168fd40d4d83a252394487433a5aa609a9f75a01d8b2a194aeacedef6268d6bf81d351fd0e2177ae007c5201ff7c10e9716d5c4a0659f7329087fdc36fbfd7926e2cfab1a21ded9670c048680f9d6d30ddc80eb09a01d6cc819b88e2433c90c9990aed9dc37c67c80729c88d583c96832b368b76d9b80\",\"0xf851a02422ff9734840a59b1aac5f7e633a0c167a45b503806ad359251d39293e7f3418080808080808080808080a087e86f8486d2a2f621f473faedf1cd6f1ed981d04c6dcf40b09e2d0575ca2aee80808080\",\"0xf843a0204d807394a26a5623e844d859daa1940d13cb7bda091582294562d688f4de00a1a07fcf0ee638cfa8d38823d3a3b0616e71ff9c70e39918c31b22361b605dbbf3c2\"],\"value\":\"0x7fcf0ee638cfa8d38823d3a3b0616e71ff9c70e39918c31b22361b605dbbf3c2\"}]}}}}}]";

static int blk_len= 3586;
char * blk = "[{\"jsonrpc\":\"2.0\",\"id\":1,\"result\":{\"difficulty\":\"0x2bff21053be8\",\"extraData\":\"0x65746865726d696e652e6f7267202845553129\",\"gasLimit\":\"0x47e7c4\",\"gasUsed\":\"0xf618\",\"hash\":\"0xa8b4ef6a9d9fed4b4701a09774300fd12b1e84e51c16e78d760e1d768e1a1c2e\",\"logsBloom\":\"0x00000000000000000000000000000000000000000000000000000000000000000000000000000000000000000000000000000000000000000000000000000000000000000000000000000000000000000000000000000000000000000000000000000000000000000000000000000000000000000000000000000000000000000000000000000000000000000000000000000000000000000000000000000000000000000000000000000000000000000000000000000000000000000000000000000000000000000000000000000000000000000000000000000000000000000000000000000000000000000000000000000000000000000000000000000000\",\"miner\":\"0xea674fdde714fd979de3edf0f56aa9716b898ec8\",\"mixHash\":\"0x8fd95b1641f8e16bb619b922fceee70377d1e00b31007ab593cac3cadaff1465\",\"nonce\":\"0x45b2dee7ccf4876f\",\"number\":\"0x19d45f\",\"parentHash\":\"0x461284cb9f4c6cd081bd6f53469f02eceb7efe25ad25ace55ef5abec66cfbf3f\",\"receiptsRoot\":\"0x5faa3158594b9058033761e3b57893822b4909e44ea0870ef2de3cf6580da08d\",\"sha3Uncles\":\"0x1dcc4de8dec75d7aab85b567b6ccd41ad312451b948a7413f0a142fd40d49347\",\"size\":\"0x370\",\"stateRoot\":\"0x6c72d0f5f612d4c2ee9cc3be1d7a05d93da70fbc842a56f419fe0ca84d79c928\",\"timestamp\":\"0x575dd2b7\",\"totalDifficulty\":\"0x176382870e7b6e660\",\"transactions\":[\"0xcbe4d82efbf148131b49e68ef79bc96b15373329bf36cc3989bd9352d7d5812c\",\"0xfc476b71bedfe4e0966f9c23a0186c411b402ef84993b944cec2d6d3472ae8da\",\"0xaaf1af8b73123660502f108aab2766219b9ea1144631c3ff7bd0f398bf34e8be\"],\"transactionsRoot\":\"0x1242d07a66602933bf75ab91d7b89daea66c244fd10810ac8aa01639936375ba\",\"uncles\":[]},\"in3\":{\"proof\":{\"type\":\"blockProof\",\"signatures\":[],\"transactions\":[{\"blockHash\":\"0xa8b4ef6a9d9fed4b4701a09774300fd12b1e84e51c16e78d760e1d768e1a1c2e\",\"blockNumber\":\"0x19d45f\",\"from\":\"0xfbb1b73c4f0bda4f67dca266ce6ef42f520fbb98\",\"gas\":\"0x186a0\",\"gasPrice\":\"0x4a817c800\",\"hash\":\"0xcbe4d82efbf148131b49e68ef79bc96b15373329bf36cc3989bd9352d7d5812c\",\"input\":\"0x\",\"nonce\":\"0x739d\",\"to\":\"0xfb1becba6eb6da5de4329a60ba6b8384abc86b46\",\"transactionIndex\":\"0x0\",\"value\":\"0x8aa39c121a270000\",\"v\":\"0x1b\",\"r\":\"0xda2930177a8f72e897d73b43f43b76860cc8c393fc3263550b21daef3c6c2d3e\",\"s\":\"0x61f55639fb142164af651850dc8ddef926160d6cd17f3bd6607eb203d6c98a26\"},{\"blockHash\":\"0xa8b4ef6a9d9fed4b4701a09774300fd12b1e84e51c16e78d760e1d768e1a1c2e\",\"blockNumber\":\"0x19d45f\",\"from\":\"0x9e6316f44baeeee5d41a1070516cc5fa47baf227\",\"gas\":\"0x3d090\",\"gasPrice\":\"0x4a817c800\",\"hash\":\"0xfc476b71bedfe4e0966f9c23a0186c411b402ef84993b944cec2d6d3472ae8da\",\"input\":\"0x\",\"nonce\":\"0x62a3\",\"to\":\"0xde47a2def16483fd225da876cd042bd2e32c3a4e\",\"transactionIndex\":\"0x1\",\"value\":\"0x3a1cfd104cf2c0000\",\"v\":\"0x1c\",\"r\":\"0x740af6361b7da63af73fb7c2e77d3ce850cc1b90ed83579b5d56a479c218dd34\",\"s\":\"0x68482ddadb6680412d76052decfa4c7417e8ed3cc3d6d15db497d57413e9afd7\"},{\"blockHash\":\"0xa8b4ef6a9d9fed4b4701a09774300fd12b1e84e51c16e78d760e1d768e1a1c2e\",\"blockNumber\":\"0x19d45f\",\"from\":\"0x9e6316f44baeeee5d41a1070516cc5fa47baf227\",\"gas\":\"0x3d090\",\"gasPrice\":\"0x4a817c800\",\"hash\":\"0xaaf1af8b73123660502f108aab2766219b9ea1144631c3ff7bd0f398bf34e8be\",\"input\":\"0x\",\"nonce\":\"0x62a4\",\"to\":\"0xf8ba87be22e158a99a819f22b5e20ad088de9cc1\",\"transactionIndex\":\"0x2\",\"value\":\"0xec10658d44f40400\",\"v\":\"0x1c\",\"r\":\"0x54d0ff266e86dc81099e4f5664075ea438b1785e4f8346ea53cc0a74c341becb\",\"s\":\"0x64f7511f6d8fabc437e77701df6b69ecfbdf4104912d64a51e3292a847eb601f\"}]},\"version\":\"2.0.0\",\"currentBlock\":8980365,\"lastValidatorChange\":0,\"lastNodeList\":8669495,\"execTime\":138,\"rpcTime\":138,\"rpcCount\":1}}]";
static int tx_hash_len = 4431;
char * tx_hash= "[{\"jsonrpc\":\"2.0\",\"id\":1,\"result\":{\"blockHash\":\"0x8f1582be8b31ca32f99d84288e147f510a6a2af911352c9a4dbf0ab716544f9a\",\"blockNumber\":\"0x8350d7\",\"from\":\"0x02df0dc4ebeb6486ea3437caf1dee7c9b2c6fd6b\",\"gas\":\"0x5208\",\"gasPrice\":\"0x649534e00\",\"hash\":\"0xdd80249a0631cf0f1593c7a9c9f9b8545e6c88ab5252287c34bc5d12457eab0e\",\"input\":\"0x\",\"nonce\":\"0xa\",\"to\":\"0x8c3977e9aa98d1ce618e696ac20092dc4c99e6a1\",\"transactionIndex\":\"0xfd\",\"value\":\"0x159f530449b42bc\",\"v\":\"0x25\",\"r\":\"0x3ea3c3298b29c3a6b37f9589b787d29b4b796f40568bacb32e18de301c8895ae\",\"s\":\"0x4e691af312cb422a7c5e0afae2f157f496273a5423f6a915fc0611c5c1beeb6b\"},\"in3\":{\"proof\":{\"type\":\"transactionProof\",\"block\":\"0xf90215a027d1005e778ced970144b50f52228f312a93706bc575c894f5c15b1317db195ba01dcc4de8dec75d7aab85b567b6ccd41ad312451b948a7413f0a142fd40d4934794ea674fdde714fd979de3edf0f56aa9716b898ec8a0d1cde5b9047ac97faaaea6b37013e22d5cecd62e686b177ab8888f0f765e47aaa025f0c2da9e753ddafbe6bcd4763adea7c4ba254173ab6e90457e1ee6cac68634a06c0bc7b14c5a4550287351c0e795125d60a130d475488403a24c17c98f9e4fe3b90100cdd6d0ae122be528009a14d2aa4c1895a6e47fe2a035580993e24c60c14a116109a0859026e8f0a002b87722a60c2d41cab57ccc3b70d0a55446dbf08918e88189838419beb130d7dc00b24ea111c1bc8628a77466625688157ed129e8680525101241336ef01e4176e8f24a218b7c6265c9ba727c4e675cd8a95b979a8b9b18f202206784e17983c114b1d7ce34ba9d1188854455f0946c57928c22363402a0b58439550c89fe81e6d9d38716619861489c5ae57fd41b3683a52521f85c6a1c6e50dd521981044985167ee4e498bd2004c3baa1065a3b661b197a870a4675e4e452a2ba2222a1229ead9a1110b4b84fc12c19db6831011d04fd3230099060238708f2170bd8cdc7838350d78398830683984e45845d88d3a994505059452d65746865726d696e652d6575312d31a04c0d18dd5191cc3b3e975316b0a95ef2d9ce9461b02985ab8a30b1e62792ac1088e101c2d404b57f48\",\"merkleProof\":[\"0xf90131a0838043533781b23f59d09e6a7f315d6ba0e123550d4dc13aad3477e270ad6bd4a0c5bc825c2baf4e49bb73c825fb0b27ac545a08d9989ffe11b37ad8485c324f8da0d0bbb6bf93d3eab90fc9615b9cb9bebcaf502af70e8d30c0d41941fc858e5f0ea076af6ab1e7927ae97bdf6acac3e7420294f3fbdc71dbf4cce927501d7523605ba05212e264800bbcf20c710a53877ec157ad82ad9a0e6748a00ad32e8db745cfd8a032cf5742c217e0073bd0312d72c0681c3656ec674e91e21933831a4d0a437b66a09302d13108d41e462c1f31220bece3d87edd10a2467408d09ce3012d3f03ffb4a0e49ce4f635b53ad1657915a58fff5cd56005834ae44a38982befcfe3c4b56e49a027b378c594f742f6d19931b6ea7afae313fbb9082afba1bd38d1737c6fcb94db8080808080808080\",\"0xf851a05aace361bb0bdbfc202c4522b1512c64f64b83be7d8a4499e8588ecbbd57e476a05ba0c8b6e84643edf6cd7c3d6f74e516673fa3d76bc86190dcb10b6edf01d70c808080808080808080808080808080\",\"0xf901118080808080808080a029368770f9a19356c625fb80683dab0ec44a42569797879110842309ee033742a0026b65267866b0203b2047f91dbd180b2ccb1e5c57f56912924222589d33e8c0a08ea720b7efa40fc0d8f34fc5c93684a959b330f8d98476a8661bd2a82f7d810fa014036f451ef49aed45de1a98f3bc268431ae1372412961253af71c1e5d6f8691a05f8d4553a4f1f889b38782fcba0b1a5f5db5d0eb62410ced8a025eb43b4a700aa031453e398e13f411d1ee74621bd30af918e0d10994a2871cac5b49c6d4cb251da05d666c4daffc16d591b38fdf918c19bb640a80817d88e7b380e488ed37f41e09a0d379d1094f238709b5f43078e816116b818a7e78f9387963554e37e0491ae78e80\",\"0xf901d1a065c4743583675c8b2c41b5fd524f2ddd1c5884848948738d8dee3cdce09d70fda05ea2baf0c84a321f1df7e47de2e6a44dba157984e49885bf971db19897dceda5a0079e160ed3ea4592f1cfd95aef8e3e9b1b1e4847e29ec399e0b6cac7283a8f96a03fda34e0f294afe095f3fa08682008ff20e84e9beed7d462c83fc7070c986071a0599fbe434968b4497286115ff8f18540d7af8588efeefef21cf2fc3a4eb05763a0a66ef83a0bfcac865f3638634c3fa8b9f9855af5095d38afe2903e9387e784b1a095658cdef16ca5ce361a5757fca9ec53172dae6280fa62bfe89575e4155637d5a07a8080ce5841337f1dc7cc1db7eb74b5c83eb40b82e16858a263fe48b0f479fea0a4603446f0e02d4c6d8d7b8a812e0b6cb763c2492ce9aa0da13e3d1bc481872aa0f96510f239653f18bdbc41055eb69f1c8eb3bf09695cf65d853507c7ee5b140ba03b2471ad7345c34136cb8b289e9888d23d3755e21dbc9e357f9117cb39da40c4a024518603a55f0a4ac0dd049c2a42598b344bf4a33e2e45016b19fc016ca2e83ca01ea8a8e7fa93a6fba3322845a4dbbf982c919771c780e6c9584ecccf19f67444a03c9e630c05e8429a15314508836b65749ad0dadb05896ee06e1dd99134fd2863808080\",\"0xf87120b86ef86c0a850649534e00825208948c3977e9aa98d1ce618e696ac20092dc4c99e6a1880159f530449b42bc8025a03ea3c3298b29c3a6b37f9589b787d29b4b796f40568bacb32e18de301c8895aea04e691af312cb422a7c5e0afae2f157f496273a5423f6a915fc0611c5c1beeb6b\"],\"txIndex\":253,\"signatures\":[]},\"version\":\"2.0.0\",\"currentBlock\":8980471,\"lastValidatorChange\":0,\"lastNodeList\":8669495,\"execTime\":1733,\"rpcTime\":1518,\"rpcCount\":2}}]";