{
	"request": [
		{
			"id": 1,
			"jsonrpc": "2.0",
			"method": "eth_getTransactionByHash",
			"params": [
				"0x9241334b0b568ef6cd44d80e37a0ce14de05557a3cfa98b5fd1d006204caf164"
			],
			"in3": {
				"version": "2.1.0",
				"chainId": "0x5",
				"verification": "proof"
			}
		}
	],
	"response": [
		{
			"jsonrpc": "2.0",
			"result": {
				"blockHash": "0x1c9d592c4ad3fba02f7aa063e8048b3ff12551fd377e78061ab6ad146cc8df4d",
				"blockNumber": "0x17a7a4",
				"chainId": "0x5",
				"condition": null,
				"creates": null,
				"from": "0x1929c15f4e818abf2549510622a50c440c474223",
				"gas": "0xa3d7",
				"gasPrice": "0x4a817c800",
				"hash": "0x9241334b0b568ef6cd44d80e37a0ce14de05557a3cfa98b5fd1d006204caf164",
				"input": "0x59ce7d4c0000000000000000000000000000000000000000000000000000000000000001",
				"nonce": "0x31",
				"publicKey": "0x23b2f8073e83caf3f99f49af92037cc1cd171faf978f79b8e6de69055b8f9c020b05e253c9211900caafef5db84f855e7d9a3af2d77c6fec3eb42d2cee8fa465",
				"r": "0x283a004bb34a7cd6bf394f6b9ea5248e7045996805f236643164f3f2d8da17ea",
				"raw": "0xf888318504a817c80082a3d794f7c8c3b26b8958a8834ac7bda540ef552f13515080a459ce7d4c00000000000000000000000000000000000000000000000000000000000000012da0283a004bb34a7cd6bf394f6b9ea5248e7045996805f236643164f3f2d8da17eaa00f6b2a4fd351e12f94254e97d489fa15afc21701572992113ca07faf62ede624",
				"s": "0xf6b2a4fd351e12f94254e97d489fa15afc21701572992113ca07faf62ede624",
				"standardV": "0x0",
				"to": "0xf7c8c3b26b8958a8834ac7bda540ef552f135150",
				"transactionIndex": "0x0",
				"v": "0x2d",
				"value": "0x0"
			},
			"id": 1,
			"in3": {
				"proof": {
					"type": "transactionProof",
					"block": "0xf9025ca09cd22d209f24344147494d05d13f335b6e63af930abdc60f3db63627589e1438a01dcc4de8dec75d7aab85b567b6ccd41ad312451b948a7413f0a142fd40d49347940000000000000000000000000000000000000000a08eef75820488f6ee9ff23b41983b4a629fb2929ca7f6a79605f1ea23f392c5e4a0e9293182306e29fed2deb3b08094530aa81ff30cb8e55dd1dc42afb50dfd1f88a09b2eb594e0363ed0487fbb7e51606436de95f5836f2bf1c520fb344bcf5d2102b9010000000000000000000000000000000000000000000000000000000000000000000000000000000000000000000000000000000000000000000000000000000000000000000000000000000000000000000000000000000000000000000000000000000000000000000000000000000000000000000000000000000000000000000000000000000000000000000000000000000000000000000000000000000000000000000000000000000000000000000000000000000000000000000000000000000000000000000000000000000000000000000000000000000000000000000000000000000000000000000000000000000000000000000000000000000000018317a7a4837a120083010d16845db6f95bb861d883010903846765746888676f312e31322e39856c696e7578000000000000009e589a2829f6fe4b72d4ff511fdaa464a9a8cf16cd104081381de02dfdff0faf59dcd08dffa67491018493710b2a4874bb547a09d13827d5e32f2bf282385c8000a00000000000000000000000000000000000000000000000000000000000000000880000000000000000",
					"merkleProof": [
						"0xf851a0a17df27266019f8099d5b0d7cb075ae5073c46b49f78eb30bdcce5a3e5afe1dd80808080808080a0e9c117de304d23050ccc6a30d2ab009a345b18ac1a31db0d36cf86a1d025fe938080808080808080",
						"0xf88d30b88af888318504a817c80082a3d794f7c8c3b26b8958a8834ac7bda540ef552f13515080a459ce7d4c00000000000000000000000000000000000000000000000000000000000000012da0283a004bb34a7cd6bf394f6b9ea5248e7045996805f236643164f3f2d8da17eaa00f6b2a4fd351e12f94254e97d489fa15afc21701572992113ca07faf62ede624"
					],
					"txIndex": 0,
					"signatures": []
				},
				"currentBlock": 1716319,
				"lastValidatorChange": 0,
				"lastNodeList": 1527136,
				"execTime": 63,
				"rpcTime": 55,
				"rpcCount": 2
			}
		}
	]
}