{
    "request": [
        {
            "id": 1,
            "jsonrpc": "2.0",
            "method": "getrawtransaction",
            "params": [
                "83ce5041679c75721ec7135e0ebeeae52636cfcb4844dbdccf86644df88da8c1",
                true
            ],
            "in3": {
                "version": "2.1.0",
                "verification": "proof"
            }
        }
    ],
    "response": [
        {
            "id": 14,
            "jsonrpc": "2.0",
            "result": {
                "txid": "83ce5041679c75721ec7135e0ebeeae52636cfcb4844dbdccf86644df88da8c1",
                "hash": "4041e8162e2c1a9711b15fd2a2b0c7aae59fbc06a95667682f1271fab0393f69",
                "version": 1,
                "size": 247,
                "vsize": 166,
                "weight": 661,
                "locktime": 0,
                "vin": [
                    {
                        "txid": "94f6e285f0b064ba20f520b1cf95d7768a23e147d602262dbc66ba73cee3cedc",
                        "vout": 1,
                        "scriptSig": {
                            "asm": "001430d71be06aa53fd845913f8613ed518d742d082a",
                            "hex": "16001430d71be06aa53fd845913f8613ed518d742d082a"
                        },
                        "txinwitness": [
                            "3044022035c13c5fdf5f5d07c2101176db8a9c727cec9c31c612b15ae0a4cbdeb25b4dc2022046849e039477aa67fb60e24635668ae1de0bddb9ade3eac2d5ca350898d43c2b01",
                            "0344715d54ec59240a4ae9f5d8e469f3933a7b03d5c09e15ac3ff53239ea1041b8"
                        ],
                        "sequence": 4294967295
                    }
                ],
                "vout": [
                    {
                        "value": 0.11,
                        "n": 0,
                        "scriptPubKey": {
                            "asm": "OP_HASH160 d129842dbe1ee73e69d14d54a8a62784877fb83e OP_EQUAL",
                            "hex": "a914d129842dbe1ee73e69d14d54a8a62784877fb83e87",
                            "reqSigs": 1,
                            "type": "scripthash",
                            "addresses": [
                                "3LkxtEvz951VX5Ny3KGDQEkbm7Zradf4rY"
                            ]
                        }
                    },
                    {
                        "value": 0.52986896,
                        "n": 1,
                        "scriptPubKey": {
                            "asm": "OP_HASH160 e483fe5491d8ef5acf043fac5eb1af0f049a8031 OP_EQUAL",
                            "hex": "a914e483fe5491d8ef5acf043fac5eb1af0f049a803187",
                            "reqSigs": 1,
                            "type": "scripthash",
                            "addresses": [
                                "3NXJ7MBLHpnbE5jhWeLsMtebYyh1WBoNBo"
                            ]
                        }
                    }
                ],
                "hex": "01000000000101dccee3ce73ba66bc2d2602d647e1238a76d795cfb120f520ba64b0f085e2f694010000001716001430d71be06aa53fd845913f8613ed518d742d082affffffff02c0d8a7000000000017a914d129842dbe1ee73e69d14d54a8a62784877fb83e87108428030000000017a914e483fe5491d8ef5acf043fac5eb1af0f049a80318702473044022035c13c5fdf5f5d07c2101176db8a9c727cec9c31c612b15ae0a4cbdeb25b4dc2022046849e039477aa67fb60e24635668ae1de0bddb9ade3eac2d5ca350898d43c2b01210344715d54ec59240a4ae9f5d8e469f3933a7b03d5c09e15ac3ff53239ea1041b800000000",
                "blockhash": "0000000000000000000a55ed3cde25139a6a4771ab810d714c64f72b026c2748",
                "confirmations": 20,
                "time": 1589863750,
                "blocktime": 1589863750
            },
            "in3": {
                "proof": {
                    "block": "0x00000020d5e0dfa4c490770bfbc05ae1580fede609bb96526c6e0900000000000000000059dee7066dcb0e6cc5cc2f67318223711a3109e1ae40e1927274cbecdcc446614665c35e397a1117c9c59ca6",
                    "txIndex": 2,
                    "merkleProof": "0xf4936452dbc67e5e4d7f77bc2007124daa732fcdc657834febaba45e503af2c6ba50780c54289219f6116d4616dbc95edc2651d5007f404b4ec2e27fcbbe8507e0c0be5dc87a04d7bb4808db2d16012ca3a58b6bd7bfc3f2228dd7bb9c96903bc4a19f72c59ab1932d6e8b0e1d0028eedc4e06ef8776df8e9dc913e8014349bad47515c8a3bec6c4a8affa4c2685a52955c4ba9f60c59324252d44659eb46efb1c8572f8119f71f47a83e315cf0290c4277667cd949209d5559b5df80a81eda70aeef1ad99c6352d75ad78d61f5efe5580c26312cada1eecb1006d3e8c53ff9cc3247ceeb5e6d501588d3cd416f7b7d8314146cb923d9c2de8ed79673e7225604aba67715d01b1528fb41af89a3d86d3901c0c88a6b7f5aac4ea1261c8d6bd27dea5084622ce16f984404c8e3d986a26d8e66678be413971be11ba1ec0b14788e4d2f739558ac868f33094ba8b9039e9f237daa4c4c75be3e22c851f6157afa5d8bff222d3e8f4107a800e4c5457ca5dfcc7db003e81bd57226cb6a513657337",
                    "cbtx": "0x010000000001010000000000000000000000000000000000000000000000000000000000000000ffffffff540375a0091b4d696e656420627920416e74506f6f6c33374e00510020e66931fafabe6d6d47270091cad6f755eca76a7e99ca8a188ded9acd9a77792a500f970861181d8c04000000000000002c60120009960400ffffffff0333c34a2c000000001976a91411dbe48cc6b617f9c6adaf4d9ed5f625b1c7cb5988ac0000000000000000266a24aa21a9ede80a44d4c35adf025f0b64410ec90738f75b29f0582e388132795a603f056d780000000000000000266a24b9e11b6db66f781caca1734d3713e4fc36f31d62e041911055808d2f00fe6feb7207b9c70120000000000000000000000000000000000000000000000000000000000000000000000000",
                    "cbtxMerkleProof": "0xa5bafc1cc734e0ac3ae51c6e97f3baf69c379a7428f3493597501be74590ab67cbafa7b91b8f0a3c037cef13a587face342a6b054f5555bb98cf2ee055c97fb6e0c0be5dc87a04d7bb4808db2d16012ca3a58b6bd7bfc3f2228dd7bb9c96903bc4a19f72c59ab1932d6e8b0e1d0028eedc4e06ef8776df8e9dc913e8014349bad47515c8a3bec6c4a8affa4c2685a52955c4ba9f60c59324252d44659eb46efb1c8572f8119f71f47a83e315cf0290c4277667cd949209d5559b5df80a81eda70aeef1ad99c6352d75ad78d61f5efe5580c26312cada1eecb1006d3e8c53ff9cc3247ceeb5e6d501588d3cd416f7b7d8314146cb923d9c2de8ed79673e7225604aba67715d01b1528fb41af89a3d86d3901c0c88a6b7f5aac4ea1261c8d6bd27dea5084622ce16f984404c8e3d986a26d8e66678be413971be11ba1ec0b14788e4d2f739558ac868f33094ba8b9039e9f237daa4c4c75be3e22c851f6157afa5d8bff222d3e8f4107a800e4c5457ca5dfcc7db003e81bd57226cb6a513657337"
                },
                "lastNodeList": 2707456,
                "execTime": 679,
                "rpcTime": 632,
                "rpcCount": 3,
                "currentBlock": 2722986,
                "version": "2.1.0"
            }
        }
    ]
}