{
	"request": [
		{
			"id": 1,
			"jsonrpc": "2.0",
			"method": "eth_getBlockTransactionCountByNumber",
			"params": [
				"0x19d45f"
			],
			"in3": {
				"version": "2.1.0",
				"chainId": "0x5",
				"verification": "proof"
			}
		}
	],
	"response": [
		{
			"jsonrpc": "2.0",
			"result": "0x6",
			"id": 1,
			"in3": {
				"proof": {
					"type": "blockProof",
					"signatures": [],
					"transactions": [
						{
							"blockHash": "0xf407f59e59f35659ebf92b7c51d7faab027b3217144dd5bce9fc5b42de1e1de9",
							"blockNumber": "0x19d45f",
							"chainId": null,
							"condition": null,
							"creates": null,
							"from": "0x79047abf3af2a1061b108d71d6dc7bdb06474790",
							"gas": "0x3d090",
							"gasPrice": "0x3dabe5e8",
							"hash": "0x19ccdf879de094e71d3506e772f77ca93ed25444a466f967bc7dd5cc557d19bc",
							"input": "0xe9c6c17600000000000000000000000000000000000000000000000000000000000000030000000000000000000000000000000000000000000000000000000000681fae95c04f5939fb173f4be53f62d7613362eb2262b1b1fb33f0413c9c5fc7cd90f7",
							"nonce": "0x39780",
							"publicKey": "0xed38c5a78db63b45503b2abae1e67d3c3d14de0024ee7ede6bdd25b0778a5c4244ad4f6c998adf12c4aeda86fb71e30df73e164b9769efc5553c0d11c8645b9f",
							"r": "0x7ec34c9655b6eeb5adbf8695f5fb7fc134d9d1f25a53160d7609a58747d6eb24",
							"raw": "0xf8cc83039780843dabe5e88303d090947ef66b77759e12caf3ddb3e4aff524e577c59d8d80b864e9c6c17600000000000000000000000000000000000000000000000000000000000000030000000000000000000000000000000000000000000000000000000000681fae95c04f5939fb173f4be53f62d7613362eb2262b1b1fb33f0413c9c5fc7cd90f71ca07ec34c9655b6eeb5adbf8695f5fb7fc134d9d1f25a53160d7609a58747d6eb24a074058b20699e3a677aac85cd2b0bafa7eee578b3842fa21b4dfca7da39b40cd3",
							"s": "0x74058b20699e3a677aac85cd2b0bafa7eee578b3842fa21b4dfca7da39b40cd3",
							"standardV": "0x1",
							"to": "0x7ef66b77759e12caf3ddb3e4aff524e577c59d8d",
							"transactionIndex": "0x0",
							"v": "0x1c",
							"value": "0x0"
						},
						{
							"blockHash": "0xf407f59e59f35659ebf92b7c51d7faab027b3217144dd5bce9fc5b42de1e1de9",
							"blockNumber": "0x19d45f",
							"chainId": null,
							"condition": null,
							"creates": null,
							"from": "0xee83d4edf7ace934dffd4b5617c01e3c9bd0a648",
							"gas": "0x2091a",
							"gasPrice": "0x3dabe5e2",
							"hash": "0xc1308cb1b12f8bd2f0ea84df9dac8623183d4df93c3b12ce7f08f501f31fefd1",
							"input": "0x0a798f24000000000000000000000000ee83d4edf7ace934dffd4b5617c01e3c9bd0a64800000000000000000000000016a993c97aa6b360972b594535ff0368c5ee569a00000000000000000000000000000000000000000000000000000000000001f4",
							"nonce": "0x0",
							"publicKey": "0x13b6e31be43ddf96925acc76457fbcd1370a59a60ed8a6730d74840fcbed210e1cbb5278b638c0a7ba9124d43c30bb015d6072c30ef70eef44abec0b1091be84",
							"r": "0x833102137e83264b7fecf0f6a98509bafefc3ce3c19de1d62102b380ddc10428",
							"raw": "0xf8c980843dabe5e28302091a94da1fbc048f503635950058953f5c60fc1f564ee680b8640a798f24000000000000000000000000ee83d4edf7ace934dffd4b5617c01e3c9bd0a64800000000000000000000000016a993c97aa6b360972b594535ff0368c5ee569a00000000000000000000000000000000000000000000000000000000000001f41ba0833102137e83264b7fecf0f6a98509bafefc3ce3c19de1d62102b380ddc10428a052e9d24fcde93ccccd8b5333ec90418112d0b0d966af9f5208be4b592c4df58f",
							"s": "0x52e9d24fcde93ccccd8b5333ec90418112d0b0d966af9f5208be4b592c4df58f",
							"standardV": "0x0",
							"to": "0xda1fbc048f503635950058953f5c60fc1f564ee6",
							"transactionIndex": "0x1",
							"v": "0x1b",
							"value": "0x0"
						},
						{
							"blockHash": "0xf407f59e59f35659ebf92b7c51d7faab027b3217144dd5bce9fc5b42de1e1de9",
							"blockNumber": "0x19d45f",
							"chainId": null,
							"condition": null,
							"creates": null,
							"from": "0x2d4fb0deb40d06142fd4d09232d87f316b4951a8",
							"gas": "0x20917",
							"gasPrice": "0x3dabe5e2",
							"hash": "0x6a0932197d136a42b3a88d9ea8ccf17d4dad26681185ae77f30d08668b3aa811",
							"input": "0x0a798f240000000000000000000000002d4fb0deb40d06142fd4d09232d87f316b4951a8000000000000000000000000eef646d210812f61111c92e9b8595652dff325d80000000000000000000000000000000000000000000000000000000000000028",
							"nonce": "0x0",
							"publicKey": "0x6a18a2abfd78f5349689f7d9003ad875e87e14f7180ae295b3f7503ccb0847fccc4288ddf17695752995f71e9d9f0b2a2e624988b7673cfa02007498568e3237",
							"r": "0x283345806f3893e25f0f076c433d926ea165f76573e76a5e435163d0fb3ad881",
							"raw": "0xf8c980843dabe5e28302091794744c249f12645e9bbb7359b4803a554ee8b93a8680b8640a798f240000000000000000000000002d4fb0deb40d06142fd4d09232d87f316b4951a8000000000000000000000000eef646d210812f61111c92e9b8595652dff325d800000000000000000000000000000000000000000000000000000000000000281ca0283345806f3893e25f0f076c433d926ea165f76573e76a5e435163d0fb3ad881a008acb8bbc2a6dfd214a176c4fa3d3e443d493028619b850da4660c884f056c0a",
							"s": "0x8acb8bbc2a6dfd214a176c4fa3d3e443d493028619b850da4660c884f056c0a",
							"standardV": "0x1",
							"to": "0x744c249f12645e9bbb7359b4803a554ee8b93a86",
							"transactionIndex": "0x2",
							"v": "0x1c",
							"value": "0x0"
						},
						{
							"blockHash": "0xf407f59e59f35659ebf92b7c51d7faab027b3217144dd5bce9fc5b42de1e1de9",
							"blockNumber": "0x19d45f",
							"chainId": null,
							"condition": null,
							"creates": null,
							"from": "0xdf3b18f1e8381325474a3dbb9925b46e5220c7f3",
							"gas": "0x2091a",
							"gasPrice": "0x3dabe5e2",
							"hash": "0x8f762d70cbbff7e44e56fe4ab6384bd6f6b446c7a19d8d4516b55678c1ea19fc",
							"input": "0x0a798f24000000000000000000000000df3b18f1e8381325474a3dbb9925b46e5220c7f30000000000000000000000005fbc06d58d30670a9215818a969c4f6d64499f6300000000000000000000000000000000000000000000000000000000000001f4",
							"nonce": "0x0",
							"publicKey": "0x5bccf873d96f28d0e467289e4dfa9f8d18a22e3af709c7cba35db88c696c3f5739e1dd0234ac55ce8c0ccc01d5f74d09a0d1de6cea1d538b0eb20542e1270ee1",
							"r": "0xc0667517105b9153eae13961b1ae460ccea897c772db8dd4a124163d4c22c3b",
							"raw": "0xf8c980843dabe5e28302091a94da1fbc048f503635950058953f5c60fc1f564ee680b8640a798f24000000000000000000000000df3b18f1e8381325474a3dbb9925b46e5220c7f30000000000000000000000005fbc06d58d30670a9215818a969c4f6d64499f6300000000000000000000000000000000000000000000000000000000000001f41ca00c0667517105b9153eae13961b1ae460ccea897c772db8dd4a124163d4c22c3ba0713ccb7c58caba9b45dec364c4e1f3e715439c5d51c7249534a5f88003f7a2d8",
							"s": "0x713ccb7c58caba9b45dec364c4e1f3e715439c5d51c7249534a5f88003f7a2d8",
							"standardV": "0x1",
							"to": "0xda1fbc048f503635950058953f5c60fc1f564ee6",
							"transactionIndex": "0x3",
							"v": "0x1c",
							"value": "0x0"
						},
						{
							"blockHash": "0xf407f59e59f35659ebf92b7c51d7faab027b3217144dd5bce9fc5b42de1e1de9",
							"blockNumber": "0x19d45f",
							"chainId": null,
							"condition": null,
							"creates": null,
							"from": "0x35150405244c7a9f91385583711717fb784b017c",
							"gas": "0x20927",
							"gasPrice": "0x3dabe5e2",
							"hash": "0xce39b2f9c34f705ba943786d5fd249dea53a4e296f9345c30fd54143d56f2f4b",
							"input": "0x0a798f2400000000000000000000000035150405244c7a9f91385583711717fb784b017c000000000000000000000000ee83d4edf7ace934dffd4b5617c01e3c9bd0a64800000000000000000000000000000000000000000000000000000000000001f4",
							"nonce": "0x0",
							"publicKey": "0xbbb2afe8dc391c5ef117e1537cc307c62b9ccc344236e4a9ed32dc5350ba864500ae4ef69cbfa4556ca6e5541568dc49d220acf50df5912df82a3cf22cea90e0",
							"r": "0x2f116b9e4712fb060f1df925081c13ae039482d2d935d743d00c3addb87a3256",
							"raw": "0xf8c980843dabe5e28302092794da1fbc048f503635950058953f5c60fc1f564ee680b8640a798f2400000000000000000000000035150405244c7a9f91385583711717fb784b017c000000000000000000000000ee83d4edf7ace934dffd4b5617c01e3c9bd0a64800000000000000000000000000000000000000000000000000000000000001f41ba02f116b9e4712fb060f1df925081c13ae039482d2d935d743d00c3addb87a3256a01e49c830b12081a9dd0d8b3864159fcc88a4e1422431cf8b87c97c995257dede",
							"s": "0x1e49c830b12081a9dd0d8b3864159fcc88a4e1422431cf8b87c97c995257dede",
							"standardV": "0x0",
							"to": "0xda1fbc048f503635950058953f5c60fc1f564ee6",
							"transactionIndex": "0x4",
							"v": "0x1b",
							"value": "0x0"
						},
						{
							"blockHash": "0xf407f59e59f35659ebf92b7c51d7faab027b3217144dd5bce9fc5b42de1e1de9",
							"blockNumber": "0x19d45f",
							"chainId": null,
							"condition": null,
							"creates": null,
							"from": "0x5fbc06d58d30670a9215818a969c4f6d64499f63",
							"gas": "0x2091a",
							"gasPrice": "0x3dabe5e2",
							"hash": "0xea650df0a86666a16ad325e8410719ccc8f82056f86639c09a436a7514e79448",
							"input": "0x0a798f240000000000000000000000005fbc06d58d30670a9215818a969c4f6d64499f6300000000000000000000000016a993c97aa6b360972b594535ff0368c5ee569a00000000000000000000000000000000000000000000000000000000000001f4",
							"nonce": "0x0",
							"publicKey": "0x70c5135eff44b722103c00facedacefeb603b9caf4cd989cc4acf4219686e239a6f78346dc212769b0565ba157e1348e4fb64e3949a4f48285020caddbbb9c44",
							"r": "0x1638948251bb46aa1866a92e05abfd1e86314ee80567b84ecf69949984df652",
							"raw": "0xf8c980843dabe5e28302091a94da1fbc048f503635950058953f5c60fc1f564ee680b8640a798f240000000000000000000000005fbc06d58d30670a9215818a969c4f6d64499f6300000000000000000000000016a993c97aa6b360972b594535ff0368c5ee569a00000000000000000000000000000000000000000000000000000000000001f41ca001638948251bb46aa1866a92e05abfd1e86314ee80567b84ecf69949984df652a05aa12a22f4e9bd73b19aae02db207fc2af5a65aac76831604c707566ca58cb14",
							"s": "0x5aa12a22f4e9bd73b19aae02db207fc2af5a65aac76831604c707566ca58cb14",
							"standardV": "0x1",
							"to": "0xda1fbc048f503635950058953f5c60fc1f564ee6",
							"transactionIndex": "0x5",
							"v": "0x1c",
							"value": "0x0"
						}
					],
					"block": "0xf9025ca047ef26f15caaab0a365071f5f9886374883581068e66227ced15b1724d09f090a01dcc4de8dec75d7aab85b567b6ccd41ad312451b948a7413f0a142fd40d49347940000000000000000000000000000000000000000a09d7f22d1b37a19f35f600c162bb2382488e26446dd5f60043161dec9ea169af2a0b7dd5015e1ef1ddd97dca5fc8447c8f497dbacb5d62bdd9e62b3925ce7885631a08cbd134c7b5819b81a9f12ba34edc04d0908d11b886915cd4b9d7ac956c2f37db9010000040000001080400000000000000000000000200000400000800000000000000040000000001008000000000002000000000000020000008008840000000000400000000000008000000000000000000002000000000000000000000042040008500000000000000000000004000000000000004000000010000000000000000000000000001000000040000009000000000041000000000000000000804000000000004000000000400000800004000000000040800000003000000008400000000004000000000000002000040000000000008000002000000000000000000000000000000000000400100000000000000008080000000000004000000000028319d45f837a120083094ae8845dd79bd0b86144505020417574686f7269747900000000000000000000000000000000000000d2d0c956dddf306aae94dd3c53c5e022418eb17a040a6e89674568686baff4576a1aa2b6d9434beb5bc971070ca5d54ca2c83ec50e47915235d05d5e1de22b4100a00000000000000000000000000000000000000000000000000000000000000000880000000000000000"
				},
				"currentBlock": 1716134,
				"lastValidatorChange": 0,
				"lastNodeList": 1527136,
				"execTime": 244,
				"rpcTime": 242,
				"rpcCount": 1
			}
		}
	]
}