:: cmd ./in3 -x -fi ../../test/testdata/cmd/zksync_deposit.txt -zks http://localhost:3030 -c http://localhost:8545 -pk 0xe20eb92b34a3c5bd2ef0802a4bc443a90e73fc4a0edc4781446d7b22a44cc5d8 zksync_deposit 0xDE0B6B3A7640000 ETH false -debug

:: time 1601026236

:: cache nodelist_17_0xf0fb87f4757c77ea3416afe87f36acaa0496c7e9 0

:: cache zksync_contracts_69f5 0

:: request http://localhost:3030 
     [{"id":2,"jsonrpc":"2.0","method":"contract_address","params":[]}]

:: response contract_address 0 http://localhost:3030 0 9
[{
  "jsonrpc":"2.0",
  "result":{
    "govContract":"0x2550DD5DB176196f2344215e6492Ca196541174C",
    "mainContract":"0x87CB3690972de082831b108dd12B3A7b8C341632"
  },
  "id":2
}]


:: cache zksync_contracts_69f5 0

:: cache zksync_tokens_69f5 0

:: request http://localhost:3030 
     [{"id":3,"jsonrpc":"2.0","method":"tokens","params":[]}]

:: response tokens 0 http://localhost:3030 0 6
[{
  "jsonrpc":"2.0",
  "result":{
    "BAT":{
      "address":"0x33c60fe20938da463650e886551b6203dc46d5d2",
      "decimals":18,
      "id":3,
      "symbol":"BAT"
    },
    "DAI":{
      "address":"0x450551f930a5ebf022be21873be531428f99b39b",
      "decimals":18,
      "id":1,
      "symbol":"DAI"
    },
    "ETH":{
      "address":"0x0000000000000000000000000000000000000000",
      "decimals":18,
      "id":0,
      "symbol":"ETH"
    },
    "wBTC":{
      "address":"0x809cfdea09c689bed37399dfd7d08bf75d1036c1",
      "decimals":8,
      "id":2,
      "symbol":"wBTC"
    }
  },
  "id":3
}]


:: cache zksync_tokens_69f5 0

:: request http://localhost:8545 
     [{"id":6,"jsonrpc":"2.0","method":"eth_chainId","params":[]}]

:: response eth_chainId 0 http://localhost:8545 0 2
[{
  "jsonrpc":"2.0",
  "id":6,
  "result":"0x9"
}]


:: request http://localhost:8545 
     [{"id":7,"jsonrpc":"2.0","method":"eth_getTransactionCount","params":["0x8a91dc2d28b689474298d91899f0c1baf62cb85b","latest"]}]

:: response eth_getTransactionCount 0 http://localhost:8545 0 2
[{
  "jsonrpc":"2.0",
  "id":7,
  "result":"0x25"
}]

:: cache nonce_8a91dc2d28b689474298d91899f0c1baf62cb85b 0

:: request http://localhost:8545 
     [{"id":8,"jsonrpc":"2.0","method":"eth_gasPrice","params":[]}]

:: response eth_gasPrice 0 http://localhost:8545 0 3
[{
  "jsonrpc":"2.0",
  "id":8,
  "result":"0x218711a00"
}]

:: request http://localhost:8545 
     [{"id":5,"jsonrpc":"2.0","method":"eth_sendRawTransaction","params":["0xf89125850218711a0083030d409487cb3690972de082831b108dd12b3a7b8c341632880de0b6b3a7640000a42d2da8060000000000000000000000008a91dc2d28b689474298d91899f0c1baf62cb85b36a07006284ff9b377695b8302b8487728c71d1e1937e7136aaa71208333cf711711a001b64606e3b982881478a1071497fc71670a5a2e9d99408ce23a98adc7234120"]}]

:: response eth_sendRawTransaction 0 http://localhost:8545 0 4
[{
  "jsonrpc":"2.0",
  "id":5,
  "result":"0xf9e864dace79cca3cac3b5bd3786ae5cadd65c04ecf02dbfe5244fb3b526ca07"
}]

:: request http://localhost:8545 
     [{"id":9,"jsonrpc":"2.0","method":"eth_getTransactionReceipt","params":["0xf9e864dace79cca3cac3b5bd3786ae5cadd65c04ecf02dbfe5244fb3b526ca07"]}]

:: response eth_getTransactionReceipt 0 http://localhost:8545 0 3
[{
  "jsonrpc":"2.0",
  "id":9,
  "result":null
}]

:: request http://localhost:8545 
     [{"id":10,"jsonrpc":"2.0","method":"eth_getTransactionReceipt","params":["0xf9e864dace79cca3cac3b5bd3786ae5cadd65c04ecf02dbfe5244fb3b526ca07"]}]

:: response eth_getTransactionReceipt 0 http://localhost:8545 0 2
[{
  "jsonrpc":"2.0",
  "id":10,
  "result":null
}]

:: request http://localhost:8545 
     [{"id":11,"jsonrpc":"2.0","method":"eth_getTransactionReceipt","params":["0xf9e864dace79cca3cac3b5bd3786ae5cadd65c04ecf02dbfe5244fb3b526ca07"]}]

:: response eth_getTransactionReceipt 0 http://localhost:8545 0 7
[{
  "jsonrpc":"2.0",
  "id":11,
  "result":{
    "blockHash":"0x5d74c76a0ad077c613ed3b6df38a5948c2acfd076283eee828d82b06b3415312",
    "blockNumber":"0xe1715",
    "contractAddress":null,
    "cumulativeGasUsed":"0x26ade",
    "from":"0x8a91dc2d28b689474298d91899f0c1baf62cb85b",
    "gasUsed":"0x26ade",
    "logs":[{
      "address":"0x87cb3690972de082831b108dd12b3a7b8c341632",
      "topics":["0xd0943372c08b438a88d4b39d77216901079eda9ca59d45349841c099083b6830"],
      "data":"0x0000000000000000000000008a91dc2d28b689474298d91899f0c1baf62cb85b0000000000000000000000000000000000000000000000000000000000000000000000000000000000000000000000000000000000000000000000000000000100000000000000000000000000000000000000000000000000000000000000a000000000000000000000000000000000000000000000000000000000000e9e15000000000000000000000000000000000000000000000000000000000000002a00000000000000000000000000000de0b6b3a76400008a91dc2d28b689474298d91899f0c1baf62cb85b00000000000000000000000000000000000000000000",
      "blockNumber":"0xe1715",
      "transactionHash":"0xf9e864dace79cca3cac3b5bd3786ae5cadd65c04ecf02dbfe5244fb3b526ca07",
      "transactionIndex":"0x0",
      "blockHash":"0x5d74c76a0ad077c613ed3b6df38a5948c2acfd076283eee828d82b06b3415312",
      "logIndex":"0x0",
      "removed":false
    },
    {
      "address":"0x87cb3690972de082831b108dd12b3a7b8c341632",
      "topics":["0xb6866b029f3aa29cd9e2bff8159a8ccaa4389f7a087c710968e0b200c0c73b08",
      "0x0000000000000000000000008a91dc2d28b689474298d91899f0c1baf62cb85b",
      "0x0000000000000000000000000000000000000000000000000000000000000000",
      "0x0000000000000000000000008a91dc2d28b689474298d91899f0c1baf62cb85b"],
      "data":"0x0000000000000000000000000000000000000000000000000de0b6b3a7640000",
      "blockNumber":"0xe1715",
      "transactionHash":"0xf9e864dace79cca3cac3b5bd3786ae5cadd65c04ecf02dbfe5244fb3b526ca07",
      "transactionIndex":"0x0",
      "blockHash":"0x5d74c76a0ad077c613ed3b6df38a5948c2acfd076283eee828d82b06b3415312",
      "logIndex":"0x1",
      "removed":false
    }],
    "logsBloom":"0x00000000000000000000000000100000000000000000000000000000000000000000000000000000000000000000000000000000000000000000000000000000000000004000000000000000000000000000200000000000000000000000000000000000020000000000000000000800000000000000000020001000000000000000000000000000000000000000000002000000000000000000000000000000000000000000000000000000000000000000000000000000001000000000000000000000000000000000000000000000000000000000200000000000000020000000000200000000000000400000000000000000000000000400000000000000",
    "status":"0x1",
    "to":"0x87cb3690972de082831b108dd12b3a7b8c341632",
    "transactionHash":"0xf9e864dace79cca3cac3b5bd3786ae5cadd65c04ecf02dbfe5244fb3b526ca07",
    "transactionIndex":"0x0"
  }
}]

:: result
{"receipt":{"blockHash":"0x5d74c76a0ad077c613ed3b6df38a5948c2acfd076283eee828d82b06b3415312","blockNumber":"0xe1715","contractAddress":null,"cumulativeGasUsed":"0x26ade","from":"0x8a91dc2d28b689474298d91899f0c1baf62cb85b","gasUsed":"0x26ade","logs":[{"address":"0x87cb3690972de082831b108dd12b3a7b8c341632","topics":["0xd0943372c08b438a88d4b39d77216901079eda9ca59d45349841c099083b6830"],"data":"0x0000000000000000000000008a91dc2d28b689474298d91899f0c1baf62cb85b0000000000000000000000000000000000000000000000000000000000000000000000000000000000000000000000000000000000000000000000000000000100000000000000000000000000000000000000000000000000000000000000a000000000000000000000000000000000000000000000000000000000000e9e15000000000000000000000000000000000000000000000000000000000000002a00000000000000000000000000000de0b6b3a76400008a91dc2d28b689474298d91899f0c1baf62cb85b00000000000000000000000000000000000000000000","blockNumber":"0xe1715","transactionHash":"0xf9e864dace79cca3cac3b5bd3786ae5cadd65c04ecf02dbfe5244fb3b526ca07","transactionIndex":"0x0","blockHash":"0x5d74c76a0ad077c613ed3b6df38a5948c2acfd076283eee828d82b06b3415312","logIndex":"0x0","removed":false},{"address":"0x87cb3690972de082831b108dd12b3a7b8c341632","topics":["0xb6866b029f3aa29cd9e2bff8159a8ccaa4389f7a087c710968e0b200c0c73b08","0x0000000000000000000000008a91dc2d28b689474298d91899f0c1baf62cb85b","0x0000000000000000000000000000000000000000000000000000000000000000","0x0000000000000000000000008a91dc2d28b689474298d91899f0c1baf62cb85b"],"data":"0x0000000000000000000000000000000000000000000000000de0b6b3a7640000","blockNumber":"0xe1715","transactionHash":"0xf9e864dace79cca3cac3b5bd3786ae5cadd65c04ecf02dbfe5244fb3b526ca07","transactionIndex":"0x0","blockHash":"0x5d74c76a0ad077c613ed3b6df38a5948c2acfd076283eee828d82b06b3415312","logIndex":"0x1","removed":false}],"logsBloom":"0x00000000000000000000000000100000000000000000000000000000000000000000000000000000000000000000000000000000000000000000000000000000000000004000000000000000000000000000200000000000000000000000000000000000020000000000000000000800000000000000000020001000000000000000000000000000000000000000000002000000000000000000000000000000000000000000000000000000000000000000000000000000001000000000000000000000000000000000000000000000000000000000200000000000000020000000000200000000000000400000000000000000000000000400000000000000","status":"0x1","to":"0x87cb3690972de082831b108dd12b3a7b8c341632","transactionHash":"0xf9e864dace79cca3cac3b5bd3786ae5cadd65c04ecf02dbfe5244fb3b526ca07","transactionIndex":"0x0"},"priorityOpId":0}
