:: cmd in3 -x -zks http://localhost:3030 -pk 0xe20eb92b34a3c5bd2ef0802a4bc443a90e73fc4a0edc4781446d7b22a44cc5d8 -c http://localhost:8545 -fi zksync_deposit_c2.txt -zkat contract zksync_deposit 10.0eth ETH false 0x89eb15687f7b55be70ac2faffcc5a52589c42d1e

:: time 1611138822

:: cache nodelist_1_0xac1b824795e1eb1f6e609fe0da9b9af8beaab60f 0

:: cache nodelist_5_0x5f51e413581dd76759e9eed51e63d14c8d1379c8 0

:: cache nodelist_2000_0xa93b57289070550c82edb1106e12bb37138948b8 0

:: cache nodelist_153_0xc2c05fbfe76ee7748ae5f5b61b57a46cc4061c32 0

:: cache nodelist_246_0x039562872008f7a76674a6e7842804f0ad37cb13 0

:: cache nodelist_17_0xf0fb87f4757c77ea3416afe87f36acaa0496c7e9 0

:: cache zksync_contracts_69f5 1
18c402514c401950947896338bcb113452593a0a933c3c8c61d042c9480a11a4bd23aae9ff7d99bb

:: cache zksync_tokens_69f5 1
150045524332302d32310000121f9840a85d5af5bf1d1762f925bdaddc4201f9840011004d4c545400000000000012690f4886c6911d81beb8130db30c825c27281f220003004c494e4b000000000000124da8d0795830f75be471f072a034d42c369b5d0a00140050484e5800000000000012fe1b6abc39e46cec54d275efb4b29b33be176c2a00160045524332302d3232000012e70f71019d3a598bdbbf8f8aa6e85a34556966e3000000455448000000000000001200000000000000000000000000000000000000000008005a52580000000000000012db7f2b9f6a0cb35fe5d236e5ed871d3ad4184290000f004c414d42000000000000129ecec4d48efdd96ae377af3ab868f99de865cff8000500485400000000000000001214700cae8b2943bad34c70bb76ae27ecf5bc50130002005553444300000000000006eb8f08a975ab53e34d8a0330e0d34de942c959260004005455534400000000000012d2255612f9b045e9c81244bb874abb413ca139a300120058454d0000000000000000c3904a7c3a95bc265066bb5bfc4d6664b217477400130044414900000000000000122e055eee18284513b993db7568a592679ab1318800070054524200000000000000122655f3a9eeb7f960be83098457144813ffad07a400010055534454000000000000063b00ef435fa4fcff5c209a37d1f3dcff37c705ad00100074474c4d00000000000012d94e3dc39d4cad1dad634e7eb585a57a19dc7efe000a0052455000000000000000129cac8508b9ff26501439590a24893d80e7e84d210006004f4d4700000000000000122b203de02ad6109521e09985b3af9b8c62541cd6000b0053544f524a0000000000088098165d982765097e4aa17138816e5b95f9fdb5000e004b4e430000000000000012290eba6ec56ecc9ff81c72e8eccc77d2c2bf63eb000d004d434f0000000000000008d93addb2921b8061b697c2ab055979bbefe2b7ac0009004241540000000000000012d2084ea2ae4bbe1424e4fe3cde25b713632fb988000c004e45584f0000000000001202d01f0835b7fdfa5d801a8f5f74c37f2bb1ae6a00

:: request http://localhost:8545 
     [{"id":4,"jsonrpc":"2.0","method":"eth_chainId","params":[]}]

:: response eth_chainId 0 http://localhost:8545 0 7
[{
  "jsonrpc":"2.0",
  "id":4,
  "result":"0x9"
}]


:: request http://localhost:8545 
     [{"id":5,"jsonrpc":"2.0","method":"eth_getTransactionCount","params":["0x8a91dc2d28b689474298d91899f0c1baf62cb85b","latest"]}]

:: response eth_getTransactionCount 0 http://localhost:8545 0 7
[{
  "jsonrpc":"2.0",
  "id":5,
  "result":"0x26"
}]

:: cache nonce_8a91dc2d28b689474298d91899f0c1baf62cb85b 0

:: request http://localhost:8545 
     [{"id":6,"jsonrpc":"2.0","method":"eth_gasPrice","params":[]}]

:: response eth_gasPrice 0 http://localhost:8545 0 10
[{
  "jsonrpc":"2.0",
  "id":6,
  "result":"0x218711a00"
}]


:: request http://localhost:8545 
     [{"id":3,"jsonrpc":"2.0","method":"eth_sendRawTransaction","params":["0xf89126850218711a0083030d409418c402514c401950947896338bcb113452593a0a888ac7230489e80000a42d2da80600000000000000000000000089eb15687f7b55be70ac2faffcc5a52589c42d1e36a05c4e6121222da1da7c6443de875b2ba28d3b2ad40de519d532a9b8e4bee206d1a075f9df6780aa26cf2bc89d0e89dfbedef22c6a03da3fe8d3e6dd26f38d5b8903"]}]

:: response eth_sendRawTransaction 0 http://localhost:8545 0 12
[{
  "jsonrpc":"2.0",
  "id":3,
  "result":"0x766c11cdb5611c6ca5d2694cc98d7dc2c71b1aa03f4ec56ba428461969da3645"
}]


:: request http://localhost:8545 
     [{"id":7,"jsonrpc":"2.0","method":"eth_getTransactionReceipt","params":["0x766c11cdb5611c6ca5d2694cc98d7dc2c71b1aa03f4ec56ba428461969da3645"]}]

:: response eth_getTransactionReceipt 0 http://localhost:8545 0 5
[{
  "jsonrpc":"2.0",
  "id":7,
  "result":null
}]


:: request http://localhost:8545 
     [{"id":8,"jsonrpc":"2.0","method":"eth_getTransactionReceipt","params":["0x766c11cdb5611c6ca5d2694cc98d7dc2c71b1aa03f4ec56ba428461969da3645"]}]

:: response eth_getTransactionReceipt 0 http://localhost:8545 0 8
[{
  "jsonrpc":"2.0",
  "id":8,
  "result":null
}]


:: request http://localhost:8545 
     [{"id":9,"jsonrpc":"2.0","method":"eth_getTransactionReceipt","params":["0x766c11cdb5611c6ca5d2694cc98d7dc2c71b1aa03f4ec56ba428461969da3645"]}]

:: response eth_getTransactionReceipt 0 http://localhost:8545 0 8
[{
  "jsonrpc":"2.0",
  "id":9,
  "result":{
    "blockHash":"0x678190ef4950fe2ffedcddacb9c35633de2ae28f707f623ec38824cb162b424c",
    "blockNumber":"0x1e88c",
    "contractAddress":null,
    "cumulativeGasUsed":"0x22cd5",
    "from":"0x8a91dc2d28b689474298d91899f0c1baf62cb85b",
    "gasUsed":"0x22cd5",
    "logs":[{
      "address":"0x18c402514c401950947896338bcb113452593a0a",
      "topics":["0xd0943372c08b438a88d4b39d77216901079eda9ca59d45349841c099083b6830"],
      "data":"0x0000000000000000000000008a91dc2d28b689474298d91899f0c1baf62cb85b0000000000000000000000000000000000000000000000000000000000000003000000000000000000000000000000000000000000000000000000000000000100000000000000000000000000000000000000000000000000000000000000a00000000000000000000000000000000000000000000000000000000000022c0c000000000000000000000000000000000000000000000000000000000000002a00000000000000000000000000008ac7230489e8000089eb15687f7b55be70ac2faffcc5a52589c42d1e00000000000000000000000000000000000000000000",
      "blockNumber":"0x1e88c",
      "transactionHash":"0x766c11cdb5611c6ca5d2694cc98d7dc2c71b1aa03f4ec56ba428461969da3645",
      "transactionIndex":"0x0",
      "blockHash":"0x678190ef4950fe2ffedcddacb9c35633de2ae28f707f623ec38824cb162b424c",
      "logIndex":"0x0",
      "removed":false
    },
    {
      "address":"0x18c402514c401950947896338bcb113452593a0a",
      "topics":["0xb6866b029f3aa29cd9e2bff8159a8ccaa4389f7a087c710968e0b200c0c73b08",
      "0x0000000000000000000000008a91dc2d28b689474298d91899f0c1baf62cb85b",
      "0x0000000000000000000000000000000000000000000000000000000000000000",
      "0x00000000000000000000000089eb15687f7b55be70ac2faffcc5a52589c42d1e"],
      "data":"0x0000000000000000000000000000000000000000000000008ac7230489e80000",
      "blockNumber":"0x1e88c",
      "transactionHash":"0x766c11cdb5611c6ca5d2694cc98d7dc2c71b1aa03f4ec56ba428461969da3645",
      "transactionIndex":"0x0",
      "blockHash":"0x678190ef4950fe2ffedcddacb9c35633de2ae28f707f623ec38824cb162b424c",
      "logIndex":"0x1",
      "removed":false
    }],
    "logsBloom":"0x00000000000000000000000000100008000000000000000000000000000000000000000000000000000000080000000800000000000000000000000000000000000000004000000000000000000000000000200000000000000000000000000000000000020000000000000000000800000000000000000000001000000000000000000000000000000000000000000002020000000000000000000000000000200000000000000000000000000000000000000000000000001000000000000000000000000000000000000000000000000000000008000000000000000020000000000200000000000000400000000000000000000000000000000000000000",
    "status":"0x1",
    "to":"0x18c402514c401950947896338bcb113452593a0a",
    "transactionHash":"0x766c11cdb5611c6ca5d2694cc98d7dc2c71b1aa03f4ec56ba428461969da3645",
    "transactionIndex":"0x0"
  }
}]


:: result
{"receipt":{"blockHash":"0x678190ef4950fe2ffedcddacb9c35633de2ae28f707f623ec38824cb162b424c","blockNumber":"0x1e88c","contractAddress":null,"cumulativeGasUsed":"0x22cd5","from":"0x8a91dc2d28b689474298d91899f0c1baf62cb85b","gasUsed":"0x22cd5","logs":[{"address":"0x18c402514c401950947896338bcb113452593a0a","topics":["0xd0943372c08b438a88d4b39d77216901079eda9ca59d45349841c099083b6830"],"data":"0x0000000000000000000000008a91dc2d28b689474298d91899f0c1baf62cb85b0000000000000000000000000000000000000000000000000000000000000003000000000000000000000000000000000000000000000000000000000000000100000000000000000000000000000000000000000000000000000000000000a00000000000000000000000000000000000000000000000000000000000022c0c000000000000000000000000000000000000000000000000000000000000002a00000000000000000000000000008ac7230489e8000089eb15687f7b55be70ac2faffcc5a52589c42d1e00000000000000000000000000000000000000000000","blockNumber":"0x1e88c","transactionHash":"0x766c11cdb5611c6ca5d2694cc98d7dc2c71b1aa03f4ec56ba428461969da3645","transactionIndex":"0x0","blockHash":"0x678190ef4950fe2ffedcddacb9c35633de2ae28f707f623ec38824cb162b424c","logIndex":"0x0","removed":false},{"address":"0x18c402514c401950947896338bcb113452593a0a","topics":["0xb6866b029f3aa29cd9e2bff8159a8ccaa4389f7a087c710968e0b200c0c73b08","0x0000000000000000000000008a91dc2d28b689474298d91899f0c1baf62cb85b","0x0000000000000000000000000000000000000000000000000000000000000000","0x00000000000000000000000089eb15687f7b55be70ac2faffcc5a52589c42d1e"],"data":"0x0000000000000000000000000000000000000000000000008ac7230489e80000","blockNumber":"0x1e88c","transactionHash":"0x766c11cdb5611c6ca5d2694cc98d7dc2c71b1aa03f4ec56ba428461969da3645","transactionIndex":"0x0","blockHash":"0x678190ef4950fe2ffedcddacb9c35633de2ae28f707f623ec38824cb162b424c","logIndex":"0x1","removed":false}],"logsBloom":"0x00000000000000000000000000100008000000000000000000000000000000000000000000000000000000080000000800000000000000000000000000000000000000004000000000000000000000000000200000000000000000000000000000000000020000000000000000000800000000000000000000001000000000000000000000000000000000000000000002020000000000000000000000000000200000000000000000000000000000000000000000000000001000000000000000000000000000000000000000000000000000000008000000000000000020000000000200000000000000400000000000000000000000000000000000000000","status":"0x1","to":"0x18c402514c401950947896338bcb113452593a0a","transactionHash":"0x766c11cdb5611c6ca5d2694cc98d7dc2c71b1aa03f4ec56ba428461969da3645","transactionIndex":"0x0"},"priorityOpId":3}
