{
    "tx": {
        "jsonrpc": "2.0",
        "id": 1,
        "result": {
            "blockHash": "0x8220e66456e40636bff3a440832c9f179e4811d4e28269c7ab70142c3e5f9be2",
            "blockNumber": "0x8c2e8a",
            "chainId": null,
            "condition": null,
            "creates": null,
            "from": "0x3a9e354dee60df25c0389badafec8457e36ebfd2",
            "gas": "0xf618",
            "gasPrice": "0x89d5f3200",
            "hash": "0x6188bf0672c005e30ad7c2542f2f048521662e30c91539d976408adf379bdae2",
            "input": "0xa9059cbb000000000000000000000000544d972d551061fc8e15e600f24f19021b8dfcfd000000000000000000000000000000000000000000000029097c413dfab40000",
            "nonce": "0x8",
            "publicKey": "0xaac8d634292b610ea2a3201dad48b332c3ee8832ea014842dfc4f5bf8b42a1c3db1410befe84db95011f3fa48ddc38c3af75fbb5782a3612512f740f56814941",
            "r": "0xf586d0e8bb1892e56b90350daf872f3ed45baa9aaf86afd3e08505be985d089a",
            "raw": "0xf8a90885089d5f320082f618945b8174e20996ec743f01d3b55a35dd376429c59680b844a9059cbb000000000000000000000000544d972d551061fc8e15e600f24f19021b8dfcfd000000000000000000000000000000000000000000000029097c413dfab400001ca0f586d0e8bb1892e56b90350daf872f3ed45baa9aaf86afd3e08505be985d089aa03a19b0eaa71cc931483e1f5c79b239c4c5fff91bc87092b85df36dc8786bdf2c",
            "s": "0x3a19b0eaa71cc931483e1f5c79b239c4c5fff91bc87092b85df36dc8786bdf2c",
            "standardV": "0x1",
            "to": "0x5b8174e20996ec743f01d3b55a35dd376429c596",
            "transactionIndex": "0x1d",
            "v": "0x1c",
            "value": "0x0"
        },
        "in3": {
            "proof": {
                "type": "transactionProof",
                "block": "0xf90217a0121373a7a7d7cc08a0ac7032f40a7e8abb5e95d9bad1dda54594bbf33143d3d5a01dcc4de8dec75d7aab85b567b6ccd41ad312451b948a7413f0a142fd40d4934794ea674fdde714fd979de3edf0f56aa9716b898ec8a04916ac6bc13d0512b8a53fea31e5b1f32418d817369a1217f4420dd2792e83dba0ef3c88072fa3ab3d7877a616b9321efd171da9732db766fe59a6171afda59aa6a05739f7466e9d48be8e10c7b80be3a6c3c9ab30a7a2f2dc698442903133381ef8b90100524a1a8950620001108542c00001090406c10210010443a022215c00125258500c00106d850882100010c260020013385a00e9008800c0019080d302003e1020421c000005100101af8004481093082068120117820dc220020680a0012401520c0920000615828000034314048088648400d210000710060ea0841822c6291142840800164510320842080400000a2801018141815010b60000807202513045822c208480023020d020829282bc9100040480600211808004080104000405005222190244878298a510800000a00041280258000c10080004082a0103402028901124613591104a000c05908984a0502da008010a88151228049400010a18188708f721aa8eb12d838c2e8a8397f9bd83935d11845e0a389496505059452d65746865726d696e652d61736961312d34a06d61b854b116ac3e892178adb6443b5af34cdcf92e2efc143a737f453020dcec8800df6b6404c629ab",
                "merkleProof": [
                    "0xf90131a0dff14d6b45cf509340d165e4e05a0c72acef535bb850b46df2cf9927657974d9a0a4eb3730451040da7bb45b2cc98c481b013783ec258c8e69fab5c5a8c3de9734a0692b40082fb42562bb0d4955e75db9c758509061c597f251b05001f68a36e64ca0dc19d56a1d29f6ec3d1ead93e4cd7b1e19abea57497c68e03bfb669cd2841ca1a028412b139fd3344d574f292233034598a9db54ac4de5f293aefd907dc6fd232aa0c26025e0a5b102da6f340558884dc203b91681e6f6803c3eb5cb95ec06e0d061a0cc915c6948815fc37167a7ed5d3a44ec12d4d49727801808a1517a568563be6da01ccaedc8b0c20b84737cf9e4ee43b64952f343d15b769f86049119d90fe827aaa00c7c461a0787df269dccdd166d10e09bfc373e339a13fa32714bf7883787c2738080808080808080",
                    "0xf90211a03cfff422a6af173bc08dea37ed6a70e1cc0041f1b5bdafb7cb4c749b7848fac1a055d41c286930920712f7fd251e3946208ea987f0c55c2471feb37185e692388fa0916357972940ea93e8241841ed6365e3bfd93afbc52e2119e6182682c6b83b0ea0ada24b84bf97aea8ec72e3f064161d09873e8d6a7c2f395554101fd098327eeca088a71f3c3f04996a1615d7e3b38a20c11f856aff5be9da101f9eca4f5c6f3fa5a0fb196b4eb4d80007b54598b4b33cf8967f4f842c6da9c395c13640fccb96c02ba0c624baf4c80c0f2cf4aef69f52c6d1f2833d2c6a78c004f59e1dc3e4ff9c5f72a038c32079cf12e34d9efb1bf842006c47be1207207ebb7ed8500c2fcb58a7f152a04c041e36d8e5465343076282fdf56724800605a9e6d5f35678d39ea75f9dcce4a0b5f65bae201ede0f4fc0b8e96ee9e909ab4fdc0ab907682056f0d0ee214a8e78a0b2fbf39f2aba50256fcef940f6abb5dcf5fbe41fb1155d3007047daae7e1c10ba0ec3cf0e213cf86d0461aa3cb9b7140cf2757b1bc16b7556fb71d77537f4e20f5a033d83c392f139c70602004a7a86ee616b4b5e975b23cebbdf93044c7251f63a0a05c78a6d67caa8a02e74b035218c4c598dd3b36a12c1a93c5b7d21e35e3094a87a061ae2f4554558f367e82943a441812b4c3b47967915f6e42468835ea38aa3556a00e73099a2444a17f68308918ccc80e0cf0cc61a7039a0364b971a6399336ba3b80",
                    "0xf8ae20b8abf8a90885089d5f320082f618945b8174e20996ec743f01d3b55a35dd376429c59680b844a9059cbb000000000000000000000000544d972d551061fc8e15e600f24f19021b8dfcfd000000000000000000000000000000000000000000000029097c413dfab400001ca0f586d0e8bb1892e56b90350daf872f3ed45baa9aaf86afd3e08505be985d089aa03a19b0eaa71cc931483e1f5c79b239c4c5fff91bc87092b85df36dc8786bdf2c"
                ],
                "txIndex": 29,
                "signatures": []
            },
            "version": "2.1.0",
            "currentBlock": 9191359,
            "lastValidatorChange": 0,
            "lastNodeList": 9187903,
            "execTime": 733,
            "rpcTime": 695,
            "rpcCount": 2
        }
    }
}