{
  "main": {
    "jsonrpc": "2.0",
    "id": 1,
    "result": {
      "blockHash": "0xca0e20a9e930af17c7422be3d991e925235b5350f8912a5ca4aaea734b4a88c5",
      "blockNumber": "0x9d6e99",
      "from": "0xea674fdde714fd979de3edf0f56aa9716b898ec8",
      "gas": "0xc350",
      "gasPrice": "0x3b9aca00",
      "hash": "0x02fb01822450cf847961e34edd4d30e8225bed8742a573fb3eb27205931b9637",
      "input": "0x",
      "nonce": "0x195b47b",
      "r": "0x8950fa5d5cb49fa031730d7457b74b80117d274592a7104eba75132e589604be",
      "s": "0x22d957a39462c2a8c14894a42045aae2e5967d8977a5f4912563401bfba7e150",
      "to": "0x3fdd30eb8a18283cf687666e5f2b1693eb72e442",
      "transactionIndex": "0x2",
      "v": "0x26",
      "value": "0xe1d75bb46cae38"
    },
    "in3": {
      "proof": {
        "type": "transactionProof",
        "block": "0xf90215a05da3a2e496015c4dc6ac87d7b1bfa7391ef33550c4436a08919c0180faee4c88a01dcc4de8dec75d7aab85b567b6ccd41ad312451b948a7413f0a142fd40d4934794ea674fdde714fd979de3edf0f56aa9716b898ec8a01c72634b4b6ddabfe9f0fa3de46c15a82d1f1dc3ffe8cacc16d13755f471f83ca014a7208b52cebecbd2be421b8bcea1bfa842785b893915fd0a73e4d6d1b6fd61a097579b393c049a7f6718f786c92449ed831c4f7aa9d56b17ea5fddf25ad464b9b90100323249211071e099b297a40081055cb7edd818060cd3112a811322c4e22c27011208b3041544fe469e427146300b014423849c414d4c42c55011081bf12dec6248cd24c138b0ed16e955113ca18140e24810882c117270d0483a124eca40b0185f2d80218300e8012400e0f349989c706463376c42994e418ce39af85748c000f1161ee4426080868ee186ecd00914488230e5656120c038f0e155f67a581d8a825621261b54b0228cd58089424c091887245e9d23b2410ed32300601ccbd964169c76669954024438531383863aac1b800d238ee5a1a456201240a2385c792926bc275917e65e92e49104ca83406a8f88d5203066f2004294c0128c7079c42f870856cd40eba130839d6e9983b6fba783b6c112845ef1069594505059452d65746865726d696e652d6575312d35a0267c332cd839c63bdbe2d9171e535cdbe07c0220096e15135e14df048cb9b9658829632f400103b66f",
        "merkleProof": [
          "0xf90131a00ad8501131d583fabae55175c7d52b03c7dbb221ff7ecac67e73293fbc7be7c5a07f030ea487504d4aa3f41fffd62d875117f4e8fbf1669b1f96ffd52c507086d5a0e1452466d951168db57c0b9c0643b370a4f15884b3a0e418f5e1852b6a5942afa012f3018eb1848cca7c1a6b74ddbadc1f010f870af087d3d3936a8cd609b00a3ea0113e67dd113f0b1896a8875a3510374f1b1e131168f4dbfddbb4238cb06b8783a096ee59f28d2a8351c2362ac7ce6ec2a867d15cbc4ed7b536aa01df6920f05a5da0b79670e09ea5a8ce728caf36375a35ab2ac628bd11f9cc375f0f259954d9960ea095cb1c4a66b5d7e94095931320b561540637e3b37fdb327815109b5699742f66a0c93bb5c9c4d235f41db66af7f9d1468bf53a4f719f6e6a52b290cfdad54ac86b8080808080808080",
          "0xf901f180a0b91fe7e3d1bf197a5cad12054889f8d053051cb6aed5aa3ddc1ee44dbd20cd6da0844dcce3f220dcd488ef4590a1952ac67432d053e85f572111d02c6b766427b5a08691f10862133a4e09da8c4607122e36315a102dce72ebdc647f56554a83bbfca04ca4cf745c3d5c0b72871dda41acfa37d03088dae8f8698c8de760af50f38648a0775cc49e82f2534f2d440c1ba43ea42d8d8789424350859b620dc881ab777073a0d1616ff94dc4f20b3193d901236b3f6ed42f53d50e758a27455d441954a2bc97a06a800c5437ee0e2a694c03bde1a460728f63c36b56a28f6a356fc50ad5890821a0376c8658e46ed5553edf0500da62a3d2c7792cc783f9b3122bf1ba652ac0d410a0df1163a8e54bca8966034e82db750b685165b32ad0a787c346f11f5b0fb8755aa0b6053e04edfd7c3eb3631d15dc1f0f3017fc85298aa440da9d3e5c8e85f278a4a01e87bd270a328727f2aa970218cd2238f2e6be27b5b1101988934f5574881827a0cdd0373ff11169add8036de0422a1ddf1ea8130bc6da1b43839d227bb7359890a037db6e543d9426090fd0bc0ebd555edbc6e13bac918b260742ded7471a7d702da0e1ddc61b399d9a0964748b2a1b9491f77d10915fc0389f6776fae06c7cee253da03ac0d29a4ddf8164d13e4a019e75708953c4444675f8478b1149136fba7880ba80",
          "0xf87320b870f86e840195b47b843b9aca0082c350943fdd30eb8a18283cf687666e5f2b1693eb72e44287e1d75bb46cae388026a08950fa5d5cb49fa031730d7457b74b80117d274592a7104eba75132e589604bea022d957a39462c2a8c14894a42045aae2e5967d8977a5f4912563401bfba7e150"
        ],
        "txIndex": 2,
        "signatures": []
      },
      "version": "2.1.0",
      "currentBlock": 10317518,
      "lastValidatorChange": 0,
      "lastNodeList": 10316088,
      "execTime": 1849,
      "rpcTime": 1538,
      "rpcCount": 1
    }
  }
}