{
  "default": {
    "result": "0x0"
  },
  "main": {
    "id": 1,
    "jsonrpc": "2.0",
    "result": "0x195b6a6",
    "in3": {
      "proof": {
        "type": "accountProof",
        "block": "0xf90215a0b1eae8d710518089950f63ab54b27aa188a7f46ee052c5942c2cfd66e5aaeba3a01dcc4de8dec75d7aab85b567b6ccd41ad312451b948a7413f0a142fd40d4934794ea674fdde714fd979de3edf0f56aa9716b898ec8a071d097ea68d845a0b3c21b9a1e6457b7f78a49e6469980edcf1df09a23460fdca097d5785fb9becf170b2682397f5f9fd22e2f259649d75cee68d93a878c0e78d9a0bcbdecb080302319e903014987795b786a3e9245caa57afbb0e071f6077b1eddb9010092b305e80041000953a80b2a8c871a142119508f4c4800392993c44010aeb94914084510010000810052ba048c896d068a405c4e890696110e401477313c11011a42126203106512ee82138c4020000c32014b91424420201448c1e180523058972203a10b84a2749408216894241c615f8a9430102e0fc12880183eb4273040294200f81ece00c52821f2c49c2f19b84098c5055d090856f5422a5057382088c627848e00412cabe440ec86f41899004440044ca0a7a80ad349660598b2ec41bc00c4420a410073242452139e000c05e0044217b008908080131457b906607078502800710114135ac444880092241649141416111040492700888189480ec8870856b8ea6c3847839d6f3583b6bb9e83b6bb80845ef10ea494505059452d65746865726d696e652d6575312d38a0566b283f7fc9d23077ee45e02fd10647a117cf3f1cbf2e6d283b6b2ef67b3f6c887b9d298290cbef6a",
        "signatures": [],
        "accounts": {
          "0xEA674fdDe714fd979de3EdF0F56AA9716B898ec8": {
            "accountProof": [
              "0xf90211a09e1d8ce456b28eb972fe3893f61ff31dbe0d096638fa4caffea896926867475fa0d3b3e5cc006f5b009bbc49f866a40dbfde1b0b1cc99c1b8aa1f1eca493f2ba36a009d7d935740dcf9cb4a50275c6560f8ca511348a684b79d878eba03a06c2c3caa00abf4e797c233a5781c4af38320a8841483d20f7b5f63a8f623ea84c61234c2aa0048cd3184d6b09a580d65a35cee34e672597399cb7322b0f0f1c0bb5bc237f0ca02180809a4f68fef23e45114d4728988fcf4cbdc9c91b8795276695fee513d657a0c5aa2bce24aed68c8f33ff3b2b4911f1b306afd9c013d3ffdf255e482fa326a4a07dbb79d200a5cc7be30485e240eacf9f910ff7cb6f08b6b0266ba8c3bdeee0dba0d7b16d2e08b8d0c31ad19f66aeaae29c83a6532c2914a2f7d3daa6bee6052876a021d05445b59dac7767c60ed6bbd828a85b743c8f44e8ebbadbdd7c31484f583da009dc4405cabaec50f4a1bbb6ec5367c827487a9965f1ebb8c91278e2fb18f636a01c83bc2994a5dce304db42bd050a96cd32121ed3a44f4ae44493e7b1f52d5c3da0fc10f77160cdcb972abd0dabed10c40d9f573f7364cfac412ec853d5459e6962a033bdde1232ab56bf880efd33216d4f4c9114b66a79ca869be9b6b721ec60742aa0586aa0f9c3e9d6c8d501d5f8bbd2d63c03c6db9be16243c5e95cb452961f07a2a0134038215c77b99c19baab3ce581f3d97cd5231062114303ce40c73c8c38b55f80",
              "0xf90211a08b71d495f8185784675975eb6831a01b3908a2bbcc13295f40165a4375e53807a0b95b2dc8d7336cce40fc41620ad0fed8e127c3684dedd3a71c4e9e5745a3c4e2a0394ef701aea14582e379b085d0b0865efebc69f0285b20faa1d074497b8603f0a027ff358b8d3bc862ec998a37002530571dc26f80e9118cfd5513641f30eb0212a028e62c788ca75a8d42e9aa7f85f3ff43b627b6125db95be54a4fadcfd4c770f1a0211a175152a0d8afa948610d48181462d6ff9dc3eee19160f8611559615a3942a083003617f4194ada7c07118b10e596ffda7011ce7640858b581f92194c5a9db7a096d17dc90e77699efcd61a4ef96a7a14956ab732b6b935189443acc1f6fb8fbca005794a88674fa1fd58e33f6b43676b6c679f160fefac4dfaef21eff4240fdf3ba07e7e7f726628bcd1d7b3d8175dac248866a045a0206dc1d9a2f0e4bcfa8622f2a0c16526d0faee7afeb8a24395be2aa9be7e21abbfbff37dcc145b10041481f7f0a02c589c965bec33ab02e05d7e200c127d671d575652c83e4a2b13d09740debfc0a02843d1db3ff2fdde5ce46f00f95f75e01f0f99afe37a2780b8ce167b8107068ba0fe39bc4a42a1e46157dae646a54313f4d5d4fd7f9fe8831cd8b40df35fb8912ca0c931be7ddd04017ad0cf37d71beb77c0e8b44232b68c9ee25775e4d197faca53a0d68fc38c31ee67fc2487a6d4c42ca3d2949295f703632ea2a676901f9b47c78680",
              "0xf90211a0180c4e8bb413e9ec1134be6c5fa3f1d70cb79e48bea121870b2ff3df301e7a0da00f40af5d344cb0dddb5fdcd17ea7eb9adf26e151775001f5791bb909e28f5c7ea0b8fa2e526445a570a661a58e76f617ba6c2fc01b3a76e62903133c64bf565fd5a07f0618f153b91a3801241a091ae3f57e6bac8b12f8ccc9e8a20a54485b8c7731a0957e09f6c7d92d571d06411e386486e0abd308ab8f3390ae2a4b65337069d5b4a0c4c4c80248abb12b69a60392a64a941467bca116eba9936b9084b9541aa5fba8a0867c7fa1871cd142fbe603823969be2c549e766b68b85a58fb12509c7a04a153a0ddeb61ffe232c9f5034073f577c852e91ad4eaf43bb54eb235149f0f0302f3f0a073aa5eb922c38454c5e4067df77fb7b73c1d4716d3a1b40245a3e4645171c20aa007a9e7b968d314e56097f2ba5e3d7028e2f3b6f7be25a06e523432a9c4906af9a04e49dc60288806a38c729290880ff11fb8bdaf4e913f32942ed9f46fd82ef3faa062da6c108e174aa70a56ea7d79437b0dd0cb6923d974a310b42e49da391eeabda0bf82e0d28cebfcc57eb8c7839fbf18ce4d63a5a976b256098c2fcbb89897799da09870c12fc312c8a30c3f86f7ad2ce19716f8bcdae8a8c866a3113524db463371a06184b6032db797271f8f8ede0040856b3b7b8aa0da428016f4ab3e5e8caf23f8a0fd8dd77d19815f2fe42962b7b86ee23be8de5eff831919e3028a451fe9c6d8ee80",
              "0xf90211a0568a1c07228a6fa491c75096b6120d75ab0e8f0acc6dfd6e49c6ba43a8cf382fa0e9e1ae806128d769bd97db532d1b504bcb5520d873863221865b7cc751678b8ca0d990766574fbd1fcd561fd969d271b3e62f6288023077de301254d540752f316a01ee41cb60733064504db8a2caa0dba7ad5bd64f26f54cfa09bf989e03b5db079a0ee5bf4ca825c549709da6d491e7c4e110abffdd0c9ccaba02f9e98210161380ca0221c22fc548f81c216975ba249d5f512f622611f8cc05e7d3bcb500c505b2ba5a01ba05caddff906d8c74b7a7dc7a9c1ceb530c9e74fc1bb52f02072a2c73da239a032879b4aca2cfe0bb8c8b318a9f863fa2aa5391773f74eb670120b2fa5fa6ddca0c4e0c791385e9b0bfc3f9c5a9054309e1b66a306364c3a6e34c922fa3103835ba0a2238b5005fa5ea04e80bc8312e59d9b3d5bdb27fd003dae2cde02e87d05a183a06398d8cc3fbf22f214b7be9635c73e35c00511ef4637618822054acb2ec932eea0627f9413c4759333831ddedd2a0bc006844a0466ec5f955433e09e2cb469c5b4a04e575d2afb0863ae96ee3e07c541e9d7a9e47d02753baef3f26b26409a8de55da0af82d4920010db50dfd10092a9a7e90a2330b171212711da318c4435a5c1bf7ca02502361ef2ea3d5131bcc58ae046041e35c798712d1d7712ab9cf0c56f402b93a04e7937f83227815cf93446ee17631e54221577c2a06dea395d0187416649e59980",
              "0xf90211a0ecf932137ae0ab484f8860689520b97d5018f2fd1a6a5f78261391f4c509d52ca01ea687b1b2d50442a649c510856d646ef4761b14f9787abf2526c81945b3bf35a035b4f2be68048a10233cda53798f21630dd5a1e16c3d22808e1cfb3a20b916c3a0358d7dae77a4f87ffb7b1ea187f4dbf1540d91bb72149332c82869508fa9a46da01b096517394b7509c123718541e25c5e36445bed9518a611851c37ca49336d52a09937e6e1b980d5e0fd282f16542930a4524621122c3d983ebd8c5b0c53c859f4a09de37f10915065717e031aee3d45c8f86d5f9579f2e0a1c6e407364acd078fdfa0c79fef2b751d1a9f909760d3bec1db3c3218eed4f09e8ecb6509f5caaeba2925a06fc4279c4065a63818882fa47b85eb42246009b86f98ded18a1fe83f89020934a0c3a5fc96e13adee7c1d509df4e0aa577a1231bedbb83a269d2b8359a0c8f1e21a0a0390a7d979c8d85d8379918b16e47522420c2aaecdb2b28fa14611745a29a77a04ac990919bc8161a742f52ccabe194e141a153b70386a510fe6128d0b6de97cea0396847cb5d686db9c5a51a9df0b2db7506a2f025d62e02c67ee024772b8065dea0aa661239b5e9dfa9d9fc2d9b5d0447c7c275b0506706fe0a7087176aa72fe956a0761cc7b429954d991423dad59629be1fdcea458ec3d598f56e5f28322f5faedda056fa913ca990664ecb56b00c98f3e53498f90e4950745954144bbfb1ac0cd6c380",
              "0xf90211a092b4bfd68ad5719836f018a21ae61807ea1296568f92d7add25295485eb4b649a02eb5111346f6cbb136a3ba827d8c209abe0e21d693c94f477cb210310241e881a089fc82f3b335fd7d21146ee4c97396093d97104b1759cecda887a8d29013c31fa0792b0ec475458b7ecb96870b6e960c266701c21bb34030b367730097ccf75e15a0cf8dba124d51909cbf2d800ba88c71595ec3480958c2131651bc4ebac3e35705a01c81c2dc354e8f4789d8414ac83094e672701cbf0058769aef03d87eb583132ba0cb5128dd4dc89b56f408db114bc7b5ad0f5433e08e2b6e941d37a593bc60417aa0e13469cad428e76ccff5bebdce57bb9de2fcd6b084d04b6829a36bf337603432a0dd83c1e4d0dd3675cfa570cd346c4bdfc3d70b8c1c1eb06bc1dc185b85dffef6a02241dcb17e12bb665361a1e662152a682b5a1be750a034868c491cd1f2f13580a032b3d861c98d235cf8881fe67663258478ec407881407678ee96dfedff50ccd6a017b29df218bd17368152746654245ead37555990f74d781d95e51939de397371a075a0507e4474e24dbc42931802c6ef9a9321c06ad92464a118683f935e0a2d7ca0e3d0d5eb3ae3f37dcc54e8f985566eb83a698421a204d41141a2e2c83092b64da0851a68db11a5e6d149ddc4e0330601c2358204e03256b064c0e104637f32c194a0649fef797b9222ab7768ed13e13f55613133adc734c9ada87848e22d815c232980",
              "0xf8918080808080a0d066d5a905ab7c14911a81fb8982810dee230962ddf7627f8a1cc70885ed9b9da074d274b9552758c439485fb063cd31a1794b87ab00884c37dd8fd1f1191ceec48080a016d805f8ffe68d2f3109a7d08b94289672f7d886b67baa37bbd8b173f90a002580a0cdd00310e1bb1eaccead2d28728c4ea4d3f0a7a5ef84ecb31abaa9b8bfc9ed3e8080808080",
              "0xf8739d3aaced683b3ca8826910182e66444f16da575d9751b28a59f44e70d0b1b853f851840195b6a68928a12e52562b6465cca056e81f171bcc55a6ff8345e692c0f86e5b48e01b996cadc001622fb5e363b421a0c5d2460186f7233c927e7db2dcc703c0e500b653ca82273b7bfad8045d85a470"
            ],
            "address": "0xea674fdde714fd979de3edf0f56aa9716b898ec8",
            "balance": "0x28a12e52562b6465cc",
            "codeHash": "0xc5d2460186f7233c927e7db2dcc703c0e500b653ca82273b7bfad8045d85a470",
            "nonce": "0x195b6a6",
            "storageHash": "0x56e81f171bcc55a6ff8345e692c0f86e5b48e01b996cadc001622fb5e363b421",
            "storageProof": []
          }
        }
      },
      "version": "2.1.0",
      "currentBlock": 10317621,
      "lastValidatorChange": 0,
      "lastNodeList": 10302455,
      "execTime": 84,
      "rpcTime": 55,
      "rpcCount": 1
    }
  }
}