[
    {
        "jsonrpc": "2.0",
        "id": 1,
        "result": {
            "blockHash": "0x8220e66456e40636bff3a440832c9f179e4811d4e28269c7ab70142c3e5f9be2",
            "blockNumber": "0x8c2e8a",
            "chainId": null,
            "condition": null,
            "creates": null,
            "from": "0x3a9e354dee60df25c0389badafec8457e36ebfd2",
            "gas": "0xf618",
            "gasPrice": "0x89d5f3200",
            "hash": "0x6188bf0672c005e30ad7c2542f2f048521662e30c91539d976408adf379bdae2",
            "input": "0xa9059cbb000000000000000000000000544d972d551061fc8e15e600f24f19021b8dfcfd000000000000000000000000000000000000000000000029097c413dfab40000",
            "nonce": "0x8",
            "publicKey": "0xaac8d634292b610ea2a3201dad48b332c3ee8832ea014842dfc4f5bf8b42a1c3db1410befe84db95011f3fa48ddc38c3af75fbb5782a3612512f740f56814941",
            "r": "0xf586d0e8bb1892e56b90350daf872f3ed45baa9aaf86afd3e08505be985d089a",
            "raw": "0xf8a90885089d5f320082f618945b8174e20996ec743f01d3b55a35dd376429c59680b844a9059cbb000000000000000000000000544d972d551061fc8e15e600f24f19021b8dfcfd000000000000000000000000000000000000000000000029097c413dfab400001ca0f586d0e8bb1892e56b90350daf872f3ed45baa9aaf86afd3e08505be985d089aa03a19b0eaa71cc931483e1f5c79b239c4c5fff91bc87092b85df36dc8786bdf2c",
            "s": "0x3a19b0eaa71cc931483e1f5c79b239c4c5fff91bc87092b85df36dc8786bdf2c",
            "standardV": "0x1",
            "to": "0x5b8174e20996ec743f01d3b55a35dd376429c596",
            "transactionIndex": "0x1d",
            "v": "0x1c",
            "value": "0x0"
        },
        "in3": {
            "lastValidatorChange": 0,
            "lastNodeList": 9278788,
            "execTime": 42,
            "rpcTime": 42,
            "rpcCount": 1,
            "currentBlock": 9278816,
            "version": "2.1.0"
        }
    }
]