[
    {
        "jsonrpc": "2.0",
        "id": 1,
        "result": {
            "blockHash": "0xd03f4a0ce830ce568be08aa37bc0a72374e92da5b388e839b35f24a144a5085d",
            "blockNumber": "0x8e32b5",
            "chainId": "0x1",
            "condition": null,
            "creates": null,
            "from": "0xe3649077ce21a48caf34041e983b92e332e80fd9",
            "gas": "0x28b0a",
            "gasPrice": "0xba43b7400",
            "hash": "0x234555975ebebea0d0a1b6d3a570f8d7d50e02bbf705fd9b6764832879530d42",
            "input": "0x",
            "nonce": "0x9b",
            "publicKey": "0x38d5ce4dc7e9bca12c677290487f7ea255dd9de2fabeb5f314a4f3517779b2a75861246ed7e4628a702fecd0d321ff05f963a2603b86074a79013f92330de4ef",
            "r": "0xe4607fffc3c7e90d88201f9bbfa332ce280a559b285f06e95a7e267aa4708e07",
            "raw": "0xf86d819b850ba43b740083028b0a94f5bec430576ff1b82e44ddb5a1c93f6f9d0884f387adefab4e1e54008025a0e4607fffc3c7e90d88201f9bbfa332ce280a559b285f06e95a7e267aa4708e07a05c8a7fbecde748b572eca35fe9a39e28ba52431e8758672c589661a86d5d3ee0",
            "s": "0x5c8a7fbecde748b572eca35fe9a39e28ba52431e8758672c589661a86d5d3ee0",
            "standardV": "0x0",
            "to": "0xf5bec430576ff1b82e44ddb5a1c93f6f9d0884f3",
            "transactionIndex": "0x1",
            "v": "0x25",
            "value": "0xadefab4e1e5400"
        },
        "in3": {
            "lastValidatorChange": 0,
            "lastNodeList": 9318885,
            "execTime": 51,
            "rpcTime": 50,
            "rpcCount": 1,
            "currentBlock": 9319117,
            "version": "2.1.0"
        }
    }
]